:020000040800F2
:100000000000012071090008F90600080107000836
:100010000907000811070008190700080000000080
:10002000000000000000000000000000A1550008D2
:100030002107000800000000F15700082F07000802
:10004000C1090008C1090008C1090008C109000868
:10005000C1090008C1090008C1090008C109000858
:10006000C1090008C1090008C1090008C109000848
:10007000C1090008C1090008C1090008C109000838
:10008000C1090008C1090008C1090008C109000828
:10009000C1090008C1090008C1090008C109000818
:1000A000C1090008C1090008C1090008C109000808
:1000B000C10900080000000000000000C10900089C
:1000C000C10900080000000000000000C10900088C
:1000D00000000000C1090008C1090008000000007C
:1000E000C1090008C109000800000000000000006C
:1000F0000000000000000000000000000000000000
:10010000000000000000000000000000C10900081D
:10011000000000000000000049070008C1090008B5
:10012000C1090008C1090008C1090008C109000887
:10013000C1090008000000000000000000000000ED
:10014000C1090008C1090008C1090008C109000867
:10015000C1090008C1090008C1090008C109000857
:10016000C1090008C1090008C10900080000000019
:10017000C1090008C10900080000000000000000DB
:0C018000C1090008C1090008C1090008FD
:1001900010B5054C237833B9044B13B10448AFF3C1
:1001A00000800123237010BD10000020000000001B
:1001B000CC5D000808B5034B1BB103490348AFF3FE
:1001C000008008BD0000000014000020CC5D000885
:1001D00053B94AB9002908BF00281CBF4FF0FF31AE
:1001E0004FF0FF3000F06AB9ADF1080C6DE904CEB4
:1001F00000F006F8DDF804E0DDE9022304B0704702
:100200002DE9F047089D0C46002B4ED194468C45B5
:100210008646B2FA82F262D94AB1C2F12003914015
:1002200020FA03F30CFA02FC194300FA02FE4FEA2B
:100230001C471FFA8CF6B1FBF7F44FEA1E4307FB8D
:10024000141143EA014304FB06F199420AD91CEB5D
:10025000030304F1FF3080F01281994240F20F81D4
:10026000023C6344591A1FFA8EF3B1FBF7F007FB07
:10027000101143EA014300FB06F69E420AD91CEB2B
:10028000030300F1FF3180F0FC809E4240F2F980D0
:10029000634402389B1B40EA044000211DB1D34057
:1002A0000022C5E90032BDE8F0878B4205D90DB1C7
:1002B000C5E9000100210846F5E7B3FA83F10029FA
:1002C00046D1A34202D39042C0F0F080861A64EB7C
:1002D00003030120002DE6D0C5E90063E3E7002A0F
:1002E00040F09080A1EB0C044FEA1C481FFA8CF7F9
:1002F0000121B4FBF8F64FEA1E4308FB164443EA1B
:10030000044307FB06F0984208D91CEB030306F1EF
:10031000FF3402D2984200F2CD8026461C1A1FFA02
:100320008EF3B4FBF8F008FB104443EA044300FBEF
:1003300007F79F4208D91CEB030300F1FF3402D2F8
:100340009F4200F2B0802046DB1B40EA0640A5E752
:10035000C1F120068B4022FA06F71F4320FA06FC63
:1003600004FA01F343EA0C03F44000FA01F8380CF4
:100370004FEA1349B4FBF0FE1FFA87FC00FB1E4452
:1003800049EA04440EFB0CF9A14502FA01F20AD92C
:100390003C190EF1FF3A80F08480A14540F2818043
:1003A000AEF1020E3C44A4EB09041FFA83F9B4FB3E
:1003B000F0F300FB134449EA044403FB0CFCA4459E
:1003C00007D93C1903F1FF3067D2A44565D9023B38
:1003D0003C4443EA0E40A0FB0293A4EB0C049C4275
:1003E000CE469C4651D34ED055B1B8EB0E0364EBCC
:1003F0000C0404FA06F6CB401E43CC40C5E9006469
:10040000002150E7C2F1200320FA03F10CFA02FCAC
:1004100024FA03F394400C434FEA1C4800FA02FE0E
:100420001FFA8CF7B3FBF8F008FB1031230C43EAFA
:10043000014300FB07F1994208D91CEB030300F1CB
:10044000FF362CD299422AD9023863445B1AA4B2EF
:10045000B3FBF8F108FB113344EA034401FB07F353
:10046000A34208D91CEB040401F1FF3613D2A342C6
:1004700011D902396444E41A41EA004139E70446DB
:10048000F0E6084606E7C845AED2B9EB020E63EBCC
:10049000070C0138A8E73146EDE7034699E73046F7
:1004A000D4E7D6467FE7634402384DE70646234645
:1004B00008460FE7023E634430E700BF704700BFC5
:1004C00080B500AF044A0021044802F00DFF034646
:1004D000034A136000BF80BD085E0008E504000801
:1004E0002C00002080B582B000AF7860012002F0BF
:1004F0008DFFFBE780B588B000AF07F10C03002249
:100500001A605A609A60DA601A611D4BDB6C1C4AF3
:1005100043F00403D3641A4BDB6C03F00403BB60A9
:10052000BB68174BDB6C164A43F00103D364144BD2
:10053000DB6C03F001037B607B68114BDB6C104AC2
:1005400043F00203D3640E4BDB6C03F002033B6009
:100550003B68002208210B4800F024FD0823FB60C3
:1005600001233B6101237B610023BB6107F10C0385
:100570001946044800F0ACFB00BF2037BD4680BDE3
:10058000001002400004004880B582B000AF7860DF
:100590000821034800F01EFD00BF0837BD4680BD9E
:1005A0000004004880B500AF00F00BFA00F014F82A
:1005B000FFF7A0FF00F042F900F0E2F8054801F073
:1005C0001FFF02F047FEFFF77BFF02F067FE00BF50
:1005D000FDE700BF3000002080B596B000AF07F106
:1005E000140344220021184605F0B6FB3B460022C6
:1005F0001A605A609A60DA601A614FF4007000F075
:1006000021FD0346002B01D000F048F800F0FCFC6F
:10061000214BD3F89030204A23F01803C2F89030D1
:1006200014237B610123FB610123FB6200233B63F5
:1006300060237B630223FB6301233B6401237B6410
:100640001023BB640723FB6402233B6502237B6505
:1006500007F11403184600F04BFD0346002B01D0B0
:1006600000F01CF80F233B6003237B600023BB607A
:100670000023FB6000233B613B460121184601F04B
:100680004BF90346002B01D000F008F801F05EFDA5
:1006900000BF5837BD4680BD0010024080B400AF97
:1006A00072B600BF00BFFDE780B582B000AF114B4E
:1006B0001B6E104A43F0010313660E4B1B6E03F0D2
:1006C00001037B607B680B4B9B6D0A4A43F08053B0
:1006D0009365084B9B6D03F080533B603B680022A1
:1006E0000F216FF0010000F0BCFA00BF0837BD46D3
:1006F00080BD00BF0010024080B400AF00BFFDE726
:1007000080B400AF00BFFDE780B400AF00BFFDE7DD
:1007100080B400AF00BFFDE780B400AF00BFFDE7CD
:1007200080B400AF00BFBD465DF8047B704780B564
:1007300000AF00F09BF904F091FA0346012B01D0C1
:1007400005F08AF800BF80BD80B500AF024801F017
:10075000ABFE00BF80BD00BF3000002080B400AF02
:10076000064BD3F88830054A43F47003C2F888304A
:1007700000BFBD465DF8047B704700BF00ED00E0A0
:1007800080B584B000AF3B1D00221A605A609A60A9
:10079000154B164A1A60144B41F61F425A60124B11
:1007A00000229A60104B44F61F62DA600E4B002262
:1007B0009A610D4801F0CCFD0346002B01D0FFF7F4
:1007C0006DFF00237B600023FB603B1D194606483C
:1007D00001F0F8FF0346002B01D0FFF75FFF00BFD9
:1007E0001037BD4680BD00BF300000200010004023
:1007F00080B584B000AF78607B681B680D4A934277
:1008000013D10D4B9B6D0C4A43F0100393650A4BBB
:100810009B6D03F01003FB60FB680022052136206E
:1008200000F01FFA362000F038FA00BF1037BD463E
:1008300080BD00BF001000400010024080B500AF36
:10084000144B154A1A60134B4FF4E1325A60114BA6
:1008500000229A600F4B0022DA600E4B00221A61D0
:100860000C4B0C225A610B4B00229A61094B00225F
:10087000DA61084B00221A62064B00225A620548D0
:1008800002F024F80346002B01D0FFF707FF00BF5A
:1008900080BD00BF7C0000200044004080B59EB0B9
:1008A00000AF786007F1640300221A605A609A6012
:1008B000DA601A6107F1100354220021184605F08E
:1008C0004BFA7B681B68284A934248D102233B615C
:1008D00000237B6307F11003184601F041FA034639
:1008E000002B01D0FFF7DAFE204B9B6D1F4A43F42B
:1008F000003393651D4B9B6D03F40033FB60FB6875
:100900001A4BDB6C194A43F00103D364174BDB6CC1
:1009100003F00103BB60BB6804237B660223BB6654
:100920000023FB6603233B6707237B6707F1640310
:1009300019464FF0904000F0CBF94FF400437B662E
:100940000223BB660023FB6603233B6703237B670D
:1009500007F1640319464FF0904000F0B9F900BF69
:100960007837BD4680BD00BF004400400010024003
:10097000DFF834D0FFF7F2FE0C480D490D4A002392
:1009800002E0D458C4500433C4188C42F9D30A4A44
:100990000A4C002301E013600432A242FBD305F0AD
:1009A000E3F9FFF7FFFDFEE7000001200000002053
:1009B00010000020845E000810000020101A0020A3
:1009C000FEE780B582B000AF0023FB71032000F08A
:1009D0003DF90F2000F00EF80346002B02D0012352
:1009E000FB7101E0FFF760FEFB7918460837BD4652
:1009F00080BD000080B584B000AF78600023FB7339
:100A0000174B1B78002B23D0164B1A68144B1B78FE
:100A100019464FF47A73B3FBF1F3B2FBF3F31846C4
:100A200000F049F90346002B0FD17B680F2B09D842
:100A3000002279684FF0FF3000F013F90A4A7B6812
:100A4000136007E00123FB7304E00123FB7301E063
:100A50000123FB73FB7B18461037BD4680BD00BFEA
:100A600008000020000000200400002080B400AF37
:100A7000064B1B781A46064B1B681344044A136046
:100A800000BFBD465DF8047B704700BF0800002032
:100A90000401002080B400AF034B1B681846BD461C
:100AA0005DF8047B704700BF0401002080B485B06E
:100AB00000AF78607B6803F00703FB600C4BDB68DA
:100AC000BB60BA684FF6FF031340BB60FB681A02B5
:100AD000BB68134343F0BF6343F40033BB60044A75
:100AE000BB68D36000BF1437BD465DF8047B704718
:100AF00000ED00E080B400AF044BDB681B0A03F09C
:100B000007031846BD465DF8047B704700ED00E022
:100B100080B483B000AF0346FB7197F90730002B18
:100B20000BDBFB7903F01F02074997F907305B09DC
:100B3000012000FA02F241F8232000BF0C37BD4625
:100B40005DF8047B704700BF00E100E080B483B033
:100B500000AF03463960FB7197F90730002B0ADBC1
:100B60003B68DAB20C4997F907301201D2B20B4454
:100B700083F800230AE03B68DAB20849FB7903F006
:100B80000F03043B1201D2B20B441A7600BF0C379C
:100B9000BD465DF8047B704700E100E000ED00E039
:100BA00080B489B000AFF860B9607A60FB6803F088
:100BB0000703FB61FB69C3F10703042B28BF042370
:100BC000BB61FB690433062B02D9FB69033B00E0E0
:100BD00000237B614FF0FF32BB6902FA03F3DA4373
:100BE000BB681A407B699A404FF0FF317B6901FA7C
:100BF00003F3D9437B680B40134318462437BD46A3
:100C00005DF8047B7047000080B582B000AF78606B
:100C10007B68013BB3F1807F01D301230FE00A4AD7
:100C20007B68013B53600F214FF0FF30FFF78EFFD1
:100C3000054B00229A60044B07221A6000231846D5
:100C40000837BD4680BD00BF10E000E080B582B02F
:100C500000AF78607868FFF729FF00BF0837BD460E
:100C600080BD80B586B000AF0346B9607A60FB7383
:100C700000237B61FFF73EFF78617A68B968786985
:100C8000FFF78EFF024697F90F3011461846FFF71F
:100C90005DFF00BF1837BD4680BD80B582B000AF94
:100CA0000346FB7197F907301846FFF731FF00BF85
:100CB0000837BD4680BD80B582B000AF78607868E7
:100CC000FFF7A2FF034618460837BD4680BD000067
:100CD00080B487B000AF7860396000237B6148E161
:100CE0003B681A6801217B6901FA03F31340FB603A
:100CF000FB68002B00F03A813B685B6803F003035C
:100D0000012B05D03B685B6803F00303022B30D155
:100D10007B689B683B617B695B00032202FA03F3FB
:100D2000DB433A6913403B613B68DA687B695B00EF
:100D300002FA03F33A6913433B617B683A699A60AC
:100D40007B685B683B6101227B6902FA03F3DB434A
:100D50003A6913403B613B685B681B0903F0010281
:100D60007B6902FA03F33A6913433B617B683A6992
:100D70005A603B685B6803F00303032B17D07B6862
:100D8000DB683B617B695B00032202FA03F3DB4310
:100D90003A6913403B613B689A687B695B0002FAE1
:100DA00003F33A6913433B617B683A69DA603B6855
:100DB0005B6803F00303022B23D17B69DA087B68AD
:100DC000083253F822303B617B6903F007039B0034
:100DD0000F2202FA03F3DB433A6913403B613B689D
:100DE0001A697B6903F007039B0002FA03F33A696F
:100DF00013433B617B69DA087B680832396943F841
:100E000022107B681B683B617B695B00032202FA4E
:100E100003F3DB433A6913403B613B685B6803F0D3
:100E200003027B695B0002FA03F33A6913433B61F7
:100E30007B683A691A603B685B6803F44033002BB7
:100E400000F09480524B1B6E514A43F0010313662D
:100E50004F4B1B6E03F00103BB60BB684D4A7B69BF
:100E60009B08023352F823303B617B6903F0030394
:100E70009B000F2202FA03F3DB433A6913403B6104
:100E80007B68B3F1904F0DD07B68434A934207D003
:100E90007B68424A934201D1022304E0072302E027
:100EA000012300E000237A6902F0030292009340DC
:100EB0003A6913433B6137497B699B0802333A69BE
:100EC00041F82320364B9B683B61FB68DB433A6962
:100ED00013403B613B685B6803F48013002B03D035
:100EE0003A69FB6813433B612D4A3B6993602C4B85
:100EF000DB683B61FB68DB433A6913403B613B685D
:100F00005B6803F40013002B03D03A69FB681343BA
:100F10003B61234A3B69D360214B5B683B61FB68C3
:100F2000DB433A6913403B613B685B6803F4003381
:100F3000002B03D03A69FB6813433B61184A3B69B5
:100F40005360174B1B683B61FB68DB433A691340F6
:100F50003B613B685B6803F48033002B03D03A6944
:100F6000FB6813433B610E4A3B6913607B690133A5
:100F70007B613B681A687B6922FA03F3002B7FF4DC
:100F8000AFAE00BF00BF1C37BD465DF8047B7047A5
:100F90000010024000000140000400480008004822
:100FA0000004014080B483B000AF78600B467B80C2
:100FB00013467B707B78002B03D07A887B689A611C
:100FC00002E07A887B689A6200BF0C37BD465DF804
:100FD000047B704780B485B000AF78600B467B809F
:100FE0007B685B69FB607A88FB6813401A04FB68C6
:100FF000D9437B880B401A437B689A6100BF143742
:10100000BD465DF8047B704780B400AF054B1B689C
:10101000044A43F48073136000BFBD465DF8047B4F
:10102000704700BF0070004080B400AF044B1B68E5
:1010300003F4C0631846BD465DF8047B704700BFEB
:101040000070004080B485B000AF78607B68B3F575
:10105000007F30D1234B1B6803F4C063B3F5007FDE
:1010600038D0204B1B6823F4C0631E4A43F400733E
:1010700013601D4B1B68322202FB03F31B4AA2FBC9
:1010800003239B0C0133FB6002E0FB68013BFB6028
:10109000144B5B6903F48063B3F5806F02D1FB6886
:1010A000002BF2D10F4B5B6903F48063B3F5806FC3
:1010B00010D103230FE00B4B1B6803F4C063B3F59F
:1010C000806F07D0074B1B6823F4C063054A43F4C5
:1010D00080631360002318461437BD465DF8047B17
:1010E000704700BF007000400000002083DE1B43FB
:1010F00080B588B000AF78607B68002B02D10123F7
:1011000000F002BC964B9B6803F00C03BB61944B50
:10111000DB6803F003037B617B681B6803F010034B
:10112000002B00F0E480BB69002B07D0BB690C2BBF
:1011300040F08B807B69012B40F08780884B1B68D7
:1011400003F00203002B05D07B689B69002B01D1C3
:101150000123D9E37B681A6A814B1B6803F00803FB
:10116000002B04D07E4B1B6803F0F00305E07C4BA2
:10117000D3F894301B0903F0F003934223D27B6829
:101180001B6A184600F08CFD0346002B01D001239A
:10119000BAE3734B1B68724A43F008031360704B49
:1011A0001B6823F0F0027B681B6A6D4913430B60D8
:1011B0006B4B5B6823F47F427B68DB691B026849E9
:1011C00013434B6025E0664B1B68654A43F00803F8
:1011D0001360634B1B6823F0F0027B681B6A604955
:1011E00013430B605E4B5B6823F47F427B68DB69D3
:1011F0001B025B4913434B60BB69002B09D17B6821
:101200001B6A184600F04CFD0346002B01D0012359
:101210007AE300F081FC0246514B9B681B0903F006
:101220000F035049CB5C03F01F0322FA03F34E4A2D
:1012300013604E4B1B681846FFF7DCFB0346FB733D
:10124000FB7B002B52D0FB7B5EE37B689B69002B12
:1012500032D0434B1B68424A43F001031360FFF74F
:1012600019FC386108E0FFF715FC02463B69D31A08
:10127000022B01D9032347E3394B1B6803F0020318
:10128000002BF0D0364B1B68354A43F0080313603F
:10129000334B1B6823F0F0027B681B6A3049134311
:1012A0000B602F4B5B6823F47F427B68DB691B027A
:1012B0002B4913434B601AE0294B1B68284A23F043
:1012C00001031360FFF7E6FB386108E0FFF7E2FB7C
:1012D00002463B69D31A022B01D9032314E3204BA6
:1012E0001B6803F00203002BF0D100E000BF7B6815
:1012F0001B6803F00103002B73D0BB69082B05D0DA
:10130000BB690C2B0ED17B69032B0BD1144B1B68D3
:1013100003F40033002B63D07B685B68002B5FD144
:101320000123F1E27B685B68B3F5803F06D10C4B8B
:101330001B680B4A43F48033136025E07B685B68CD
:10134000B3F5A02F14D1064B1B68054A43F4802344
:101350001360034B1B68024A43F48033136013E0AD
:10136000001002402C5E0008000000200400002055
:10137000A04B1B689F4A23F4803313609D4B1B686E
:101380009C4A23F4802313607B685B68002B13D096
:10139000FFF780FB386108E0FFF77CFB02463B6902
:1013A000D31A642B01D90323AEE2924B1B6803F4DA
:1013B0000033002BF0D014E0FFF76CFB386108E03D
:1013C000FFF768FB02463B69D31A642B01D903235C
:1013D0009AE2884B1B6803F40033002BF0D100E045
:1013E00000BF7B681B6803F00203002B60D0BB6961
:1013F000042B05D0BB690C2B19D17B69022B16D1AC
:101400007C4B1B6803F48063002B05D07B68DB6892
:10141000002B01D1012377E2764B5B6823F0F85271
:101420007B681B691B06734913434B6040E07B6874
:10143000DB68002B23D06F4B1B686E4A43F480732C
:101440001360FFF727FB386108E0FFF723FB024634
:101450003B69D31A022B01D9032355E2654B1B6864
:1014600003F48063002BF0D0624B5B6823F0F852EA
:101470007B681B691B065F4913434B6018E05D4B9B
:101480001B685C4A23F480731360FFF703FB386129
:1014900008E0FFF7FFFA02463B69D31A022B01D995
:1014A000032331E2534B1B6803F48063002BF0D11C
:1014B0007B681B6803F00803002B3CD07B685B69EA
:1014C000002B1CD04B4BD3F894304A4A43F0010315
:1014D000C2F89430FFF7DEFA386108E0FFF7DAFA75
:1014E00002463B69D31A022B01D903230CE2414B7C
:1014F000D3F8943003F00203002BEFD01BE03D4BF8
:10150000D3F894303B4A23F00103C2F89430FFF73C
:10151000C1FA386108E0FFF7BDFA02463B69D31A09
:10152000022B01D90323EFE1324BD3F8943003F0BF
:101530000203002BEFD17B681B6803F00403002B30
:1015400000F0A6800023FB772A4B9B6D03F08053AD
:10155000002B0DD1274B9B6D264A43F0805393659A
:10156000244B9B6D03F08053BB60BB680123FB776A
:10157000214B1B6803F48073002B18D11E4B1B6892
:101580001D4A43F480731360FFF784FA386108E062
:10159000FFF780FA02463B69D31A022B01D90323D5
:1015A000B2E1154B1B6803F48073002BF0D07B680D
:1015B0009B68012B08D10F4BD3F890300D4A43F0B4
:1015C0000103C2F8903029E07B689B68052B15D198
:1015D000084BD3F89030074A43F00403C2F8903028
:1015E000044BD3F89030034A43F00103C2F8903023
:1015F00014E000BF00100240007000409A4BD3F886
:101600009030994A23F00103C2F89030964BD3F8FA
:101610009030954A23F00403C2F890307B689B68B1
:10162000002B16D0FFF736FA38610AE0FFF732FADE
:1016300002463B69D31A41F28832934201D903230F
:1016400062E1894BD3F8903003F00203002BEDD018
:1016500015E0FFF71FFA38610AE0FFF71BFA0246B0
:101660003B69D31A41F28832934201D903234BE1FB
:101670007D4BD3F8903003F00203002BEDD1FB7FBC
:10168000012B05D1784B9B6D774A23F080539365EE
:101690007B681B6803F02003002B3CD07B685B6AEF
:1016A000002B1CD0704BD3F898306F4A43F00103E5
:1016B000C2F89830FFF7EEF9386108E0FFF7EAF971
:1016C00002463B69D31A022B01D903231CE1664B66
:1016D000D3F8983003F00203002BEFD01BE0624BED
:1016E000D3F89830604A23F00103C2F89830FFF72E
:1016F000D1F9386108E0FFF7CDF902463B69D31A0A
:10170000022B01D90323FFE0574BD3F8983003F0A5
:101710000203002BEFD17B689B6A002B00F0F38063
:101720007B689B6A022B40F0C9804F4BDB687B6172
:101730007B6903F003027B68DB6A9A422CD17B69E8
:1017400003F070027B681B6B013B1B019A4223D1A3
:101750007B6903F4FE427B685B6B1B029A421BD1E0
:101760007B6903F078427B689B6BDB069A4213D15E
:101770007B6903F4C0027B68DB6B5B08013B5B05A4
:101780009A4209D17B6903F0C0627B681B6C5B08DD
:10179000013B5B069A426BD0BB690C2B62D0324B8B
:1017A0001B6803F08063002B01D00123ACE02E4BBB
:1017B0001B682D4A23F080731360FFF76BF93861C3
:1017C00008E0FFF767F902463B69D31A022B01D9FB
:1017D000032399E0244B1B6803F00073002BF0D126
:1017E000214BDA68214B13407A68D16A7A68126B10
:1017F000013A120111437A68526B120211437A685E
:10180000D26B5208013A520511437A68126C5208A1
:10181000013A520611437A68926BD2060A43124982
:101820001343CB60104B1B680F4A43F08073136067
:101830000D4BDB680C4A43F08073D360FFF72AF945
:10184000386108E0FFF726F902463B69D31A022BFC
:1018500001D9032358E0044B1B6803F00073002BED
:10186000F0D050E001234FE0001002408C809D0139
:10187000274B1B6803F00073002B44D1244B1B68DB
:10188000234A43F080731360214BDB68204A43F006
:101890008073D360FFF7FEF8386108E0FFF7FAF8CD
:1018A00002463B69D31A022B01D903232CE0184BC3
:1018B0001B6803F00073002BF0D024E0BB690C2BF5
:1018C0001FD0134B1B68124A23F080731360FFF77D
:1018D000E1F8386108E0FFF7DDF802463B69D31A0A
:1018E000022B01D903230FE0094B1B6803F000739F
:1018F000002BF0D1064BDA680549064B1340CB604C
:1019000001E0012300E0002318462037BD4680BDDA
:1019100000100240FCFFEEFE80B584B000AF78609E
:1019200039607B68002B01D10123E7E0754B1B6810
:1019300003F007033A689A4210D9724B1B6823F0F0
:10194000070270493B6813430B606E4B1B6803F042
:1019500007033A689A4201D00123CFE07B681B68F5
:1019600003F00203002B10D07B689A68664B9B68DB
:1019700003F0F0039A4208D9634B9B6823F0F0020E
:101980007B689B68604913438B607B681B6803F02E
:101990000103002B4CD07B685B68032B07D15A4BAB
:1019A0001B6803F00073002B21D10123A6E07B68A4
:1019B0005B68022B07D1544B1B6803F40033002BE8
:1019C00015D101239AE07B685B68002B07D14E4B51
:1019D0001B6803F00203002B09D101238EE04A4B60
:1019E0001B6803F48063002B01D1012386E0464B82
:1019F0009B6823F003027B685B68434913438B6059
:101A0000FFF748F8F8600AE0FFF744F80246FB6881
:101A1000D31A41F28832934201D903236EE03A4B44
:101A20009B6803F00C027B685B689B009A42EBD1D9
:101A30007B681B6803F00203002B10D07B689A6858
:101A4000314B9B6803F0F0039A4208D22E4B9B68FF
:101A500023F0F0027B689B682B4913438B60294B72
:101A60001B6803F007033A689A4210D2254B1B68A3
:101A700023F0070223493B6813430B60214B1B688B
:101A800003F007033A689A4201D0012336E07B68ED
:101A90001B6803F00403002B08D01B4B9B6823F446
:101AA000E0627B68DB68184913438B607B681B68C6
:101AB00003F00803002B09D0134B9B6823F46052FA
:101AC0007B681B69DB00104913438B6000F024F82E
:101AD00002460D4B9B681B0903F00F030B49CB5CBF
:101AE00003F01F0322FA03F3094A1360094B1B6832
:101AF0001846FEF77FFF0346FB72FB7A1846103745
:101B0000BD4680BD00200240001002402C5E00084F
:101B1000000000200400002080B489B000AF002342
:101B2000FB610023BB613E4B9B6803F00C033B61F0
:101B30003B4BDB6803F00303FB603B69002B05D0E4
:101B40003B690C2B21D1FB68012B1ED1344B1B6848
:101B500003F00803002B07D1314BD3F894301B0A54
:101B600003F00F03FB6105E02D4B1B681B0903F01D
:101B70000F03FB612B4AFB6952F82330FB613B6981
:101B8000002B0DD1FB69BB610AE03B69042B02D13C
:101B9000254BBB6104E03B69082B01D1234BBB61A2
:101BA0003B690C2B34D11E4BDB6803F00303BB6095
:101BB000BB68022B03D0BB68032B03D005E01A4B94
:101BC0007B6105E0194B7B6102E0FB697B6100BF33
:101BD000134BDB681B0903F0070301337B60104BD9
:101BE000DB681B0A03F07F037A6903FB02F27B6860
:101BF000B2FBF3F37B610A4BDB685B0E03F003037C
:101C000001335B003B607A693B68B2FBF3F3BB6175
:101C1000BB6918462437BD465DF8047B704700BF9A
:101C200000100240445E00080024F40000127A0014
:101C300080B400AF034B1B681846BD465DF8047BBB
:101C4000704700BF0000002080B500AFFFF7F0FF35
:101C50000246064B9B681B0A03F007030449CB5C52
:101C600003F01F0322FA03F3184680BD0010024060
:101C70003C5E000880B500AFFFF7DAFF0246064B76
:101C80009B68DB0A03F007030449CB5C03F01F03E6
:101C900022FA03F3184680BD001002403C5E0008A3
:101CA00080B586B000AF786000233B612A4B9B6D06
:101CB00003F08053002B03D0FFF7B6F9786114E0EE
:101CC000254B9B6D244A43F080539365224B9B6DBB
:101CD00003F08053FB60FB68FFF7A6F978611E4BA9
:101CE0009B6D1D4A23F0805393657B69B3F5007F9C
:101CF0000BD17B68802B19D97B68A02B02D90223DA
:101D00003B6113E001233B6110E07B68802B02D92B
:101D100003233B610AE07B68802B02D102233B61F5
:101D200004E07B68702B01D101233B610B4B1B68E6
:101D300023F0070209493B6913430B60074B1B68FB
:101D400003F007033A699A4201D0012300E000231F
:101D500018461837BD4680BD0010024000200240E2
:101D600080B586B000AF78600023FB740023BB749D
:101D70007B681B6803F40063002B31D07B68DB6B4E
:101D8000B3F5400F1AD0B3F5400F14D8002B09D08B
:101D9000B3F5000F0FD15D4BDB685C4A43F4803331
:101DA000D3600CE07B6804330021184600F0DEF9B4
:101DB0000346FB7403E00123FB7400E000BFFB7CDF
:101DC000002B0BD1514BD3F8883023F440027B68B1
:101DD000DB6B4E491343C1F8883001E0FB7CBB74D8
:101DE0007B681B6803F40033002B00F09E80002307
:101DF0007B74464B9B6D03F08053002B01D1012374
:101E000000E00023002B0DD0404B9B6D3F4A43F078
:101E1000805393653D4B9B6D03F08053BB60BB6863
:101E200001237B743A4B1B68394A43F48073136077
:101E3000FEF730FEF86009E0FEF72CFE0246FB6874
:101E4000D31A022B02D90323FB7405E0304B1B6825
:101E500003F48073002BEFD0FB7C002B5AD12B4B6B
:101E6000D3F8903003F440737B617B69002B1ED064
:101E70007B681B6D7A699A4219D0244BD3F8903055
:101E800023F440737B61214BD3F890301F4A43F415
:101E90008033C2F890301D4BD3F890301B4A23F4A6
:101EA0008033C2F89030194A7B69C2F890307B6960
:101EB00003F00103002B16D0FEF7ECFDF8600BE0F9
:101EC000FEF7E8FD0246FB68D31A41F288329342DE
:101ED00002D90323FB7406E00C4BD3F8903003F0D7
:101EE0000203002BECD0FB7C002B0BD1074BD3F86B
:101EF000903023F440727B681B6D04491343C1F892
:101F0000903009E0FB7CBB7406E000BF001002408B
:101F100000700040FB7CBB747B7C012B05D18A4B9D
:101F20009B6D894A23F0805393657B681B6803F09F
:101F30000103002B0AD0844BD3F8883023F003022E
:101F40007B681B6A80491343C1F888307B681B6833
:101F500003F00203002B0AD07B4BD3F8883023F028
:101F60000C027B685B6A78491343C1F888307B6850
:101F70001B6803F02003002B0AD0734BD3F8883082
:101F800023F440627B689B6A6F491343C1F8883031
:101F90007B681B6803F40073002B0AD06A4BD3F8EC
:101FA000883023F440227B685B6B67491343C1F898
:101FB00088307B681B6803F48063002B0AD0624B77
:101FC000D3F8883023F440127B689B6B5E4913433F
:101FD000C1F888307B681B6803F04003002B0AD0EF
:101FE000594BD3F8883023F440527B68DB6A56495A
:101FF0001343C1F888307B681B6803F48073002B9F
:102000000AD0514BD3F8883023F440327B681B6BE5
:102010004D491343C1F888307B681B6803F40053B3
:10202000002B28D0484BD3F8883023F040627B68DF
:102030001B6C45491343C1F888307B681B6CB3F1B6
:10204000006F06D1404BDB683F4A43F48013D360F6
:1020500011E07B681B6CB3F1806F0CD17B6804339B
:102060000121184600F082F80346FB74FB7C002B2C
:1020700001D0FB7CBB747B681B6803F48023002BBE
:1020800028D0314BD3F8883023F040627B685B6CFA
:102090002D491343C1F888307B685B6CB3F1006F46
:1020A00006D1294BDB68284A43F48013D36011E042
:1020B0007B685B6CB3F1806F0CD17B6804330121CA
:1020C000184600F053F80346FB74FB7C002B01D04C
:1020D000FB7CBB747B681B6803F48043002B1CD023
:1020E000194BD3F8883023F040527B689B6C16491B
:1020F0001343C1F888307B689B6CB3F1805F0CD1CF
:102100007B6804330221184600F030F80346FB7464
:10211000FB7C002B01D0FB7CBB747B681B6803F449
:102120000043002B0AD0084BD3F8883023F08042BC
:102130007B68DB6C04491343C1F88830BB7C1846CC
:102140001837BD4680BD00BF0010024080B400AF0C
:10215000054B1B68044A43F00403136000BFBD46EF
:102160005DF8047B704700BF0010024080B584B06A
:1021700000AF786039600023FB73744BDB6803F0B9
:102180000303002B18D0714BDB6803F003027B685C
:102190001B689A420DD17B681B68002B09D06B4BE2
:1021A000DB681B0903F007035A1C7B685B689A42D3
:1021B00047D00123FB7344E07B681B68032B18D0D6
:1021C000032B25D8012B02D0022B09D020E05F4B36
:1021D0001B6803F00203002B1DD10123FB731AE0DF
:1021E0005A4B1B6803F48063002B16D10123FB7349
:1021F00013E0564B1B6803F40033002B0FD1534BF5
:102200001B6803F48023002B09D10123FB7306E034
:102210000123FB7304E000BF02E000BF00E000BF49
:10222000FB7B002B0DD1494BDB6823F073027B68ED
:1022300019687B685B68013B1B010B4343491343EF
:10224000CB60FB7B002B7CD1404B1B683F4A23F0CB
:1022500080631360FEF71EFCB86009E0FEF71AFC0D
:102260000246BB68D31A022B02D90323FB7305E095
:10227000364B1B6803F00063002BEFD1FB7B002B78
:102280005FD13B68002B10D1304B1B6923F07843A2
:1022900023F4FE437A68926811027A68D268D20603
:1022A0000A432A4913430B6127E03B68012B12D1F3
:1022B000264B1B6923F4C00323F4FE437A6892681B
:1022C00011027A6812695208013A52050A431F49FD
:1022D00013430B6111E01D4B1B6923F0C06323F412
:1022E000FE437A68926811027A6852695208013A8C
:1022F00052060A43154913430B61144B1B68134ADA
:1023000043F080631360FEF7C5FBB86009E0FEF799
:10231000C1FB0246BB68D31A022B02D90323FB730D
:1023200005E00A4B1B6803F00063002BEFD0FB7B3A
:10233000002B06D1054B1A697B689B69034913433F
:102340000B61FB7B18461037BD4680BD0010024074
:1023500080B582B000AF78607B68002B01D101238B
:1023600049E07B6893F83D30DBB2002B06D17B68F7
:10237000002283F83C207868FEF73AFA7B68022254
:1023800083F83D207B681A687B6804331946104641
:1023900000F0B4F97B68012283F848207B680122B1
:1023A00083F83E207B68012283F83F207B6801226E
:1023B00083F840207B68012283F841207B6801225A
:1023C00083F842207B68012283F843207B68012246
:1023D00083F844207B68012283F845207B68012232
:1023E00083F846207B68012283F847207B6801221E
:1023F00083F83D20002318460837BD4680BD000005
:1024000080B485B000AF78607B6893F83D30DBB274
:10241000012B01D001233BE07B68022283F83D20A1
:102420007B681B68DA687B681B6842F00102DA602F
:102430007B681B68194A934209D07B681B68B3F11B
:10244000804F04D07B681B68154A934215D17B6886
:102450001B689A68134B1340FB60FB68062B15D072
:10246000FB68B3F5803F11D07B681B681A687B68F6
:102470001B6842F001021A6008E07B681B681A685A
:102480007B681B6842F001021A6000E000BF002375
:1024900018461437BD465DF8047B7047002C014098
:1024A000004001400700010080B584B000AF7860B3
:1024B0007B681B68DB68FB607B681B681B69BB6013
:1024C000BB6803F00203002B20D0FB6803F002037B
:1024D000002B1BD07B681B686FF002021A617B68BF
:1024E00001221A777B681B689B6903F00303002BAA
:1024F00003D0786800F0E4F805E0786800F0D6F8DA
:10250000786800F0E7F87B6800221A77BB6803F070
:102510000403002B20D0FB6803F00403002B1BD026
:102520007B681B686FF004021A617B6802221A77CD
:102530007B681B689B6903F44073002B03D07868A9
:1025400000F0BEF805E0786800F0B0F8786800F0B8
:10255000C1F87B6800221A77BB6803F00803002BE0
:1025600020D0FB6803F00803002B1BD07B681B689E
:102570006FF008021A617B6804221A777B681B6877
:10258000DB6903F00303002B03D0786800F098F8B0
:1025900005E0786800F08AF8786800F09BF87B68BE
:1025A00000221A77BB6803F01003002B20D0FB68D1
:1025B00003F01003002B1BD07B681B686FF0100228
:1025C0001A617B6808221A777B681B68DB6903F451
:1025D0004073002B03D0786800F072F805E078684B
:1025E00000F064F8786800F075F87B6800221A77CC
:1025F000BB6803F00103002B0CD0FB6803F0010360
:10260000002B07D07B681B686FF001021A617868A5
:10261000FDF7BAFFBB6803F08003002B0CD0FB680A
:1026200003F08003002B07D07B681B686FF08002EB
:102630001A61786800F036F9BB6803F48073002BE8
:102640000CD0FB6803F08003002B07D07B681B686D
:102650006FF480721A61786800F02EF9BB6803F09D
:102660004003002B0CD0FB6803F04003002B07D085
:102670007B681B686FF040021A61786800F034F8DC
:10268000BB6803F02003002B0CD0FB6803F0200391
:10269000002B07D07B681B686FF020021A617868F6
:1026A00000F0F6F800BF1037BD4680BD80B483B09F
:1026B00000AF786000BF0C37BD465DF8047B704703
:1026C00080B483B000AF786000BF0C37BD465DF8C2
:1026D000047B704780B483B000AF786000BF0C37D4
:1026E000BD465DF8047B704780B483B000AF78606E
:1026F00000BF0C37BD465DF8047B704780B485B0E1
:1027000000AF786039607B681B68FB607B682A4A91
:10271000934203D07B68B3F1804F08D1FB6823F06C
:102720007003FB603B685B68FA681343FB607B687F
:10273000214A93420BD07B68B3F1804F07D07B686E
:102740001E4A934203D07B681D4A934208D1FB681E
:1027500023F44073FB603B68DB68FA681343FB605B
:10276000FB6823F080023B685B691343FB607B6876
:10277000FA681A603B689A687B68DA623B681A6894
:102780007B689A627B680C4A934207D07B680B4A4D
:10279000934203D07B680A4A934203D13B681A698B
:1027A0007B681A637B6801225A6100BF1437BD46FB
:1027B0005DF8047B704700BF002C014000400140E1
:1027C0000044014080B485B000AF786039607B6818
:1027D00093F83C30012B01D102234FE07B680122AA
:1027E00083F83C207B68022283F83D207B681B68CD
:1027F0005B68FB607B681B689B68BB607B681B68D1
:10280000214A934208D1FB6823F47003FB603B68C4
:102810005B68FA681343FB60FB6823F07003FB609E
:102820003B681B68FA681343FB607B681B68FA68A7
:102830005A607B681B68144A934209D07B681B6806
:10284000B3F1804F04D07B681B68104A93420CD1CF
:10285000BB6823F08003BB603B689B68BA68134386
:10286000BB607B681B68BA689A607B68012283F84A
:102870003D207B68002283F83C2000231846143753
:10288000BD465DF8047B7047002C014000400140CC
:1028900080B483B000AF786000BF0C37BD465DF8F0
:1028A000047B704780B483B000AF786000BF0C3702
:1028B000BD465DF8047B704780B483B000AF78609C
:1028C00000BF0C37BD465DF8047B704780B582B011
:1028D00000AF78607B68002B01D1012340E07B686A
:1028E000DB6F002B06D17B68002283F878207868A4
:1028F000FDF7D4FF7B682422DA677B681B681A68BF
:102900007B681B6822F001021A607B685B6A002BFF
:1029100002D0786800F054FA786800F025F8034691
:10292000012B01D101231BE07B681B685A687B687F
:102930001B6822F490425A607B681B689A687B6827
:102940001B6822F02A029A607B681B681A687B6801
:102950001B6842F001021A60786800F0D3FA03465F
:1029600018460837BD4680BD2DE9B04F8AB000AF8C
:10297000F860002387F82230FB689A68FB681B69BF
:102980001A43FB685B691A43FB68DB6913437B628C
:10299000FB681B681A68B44B1340FA681268796ABE
:1029A0000B431360FB681B685B6823F44051FB68B2
:1029B000DA68FB681B680A435A60FB689B697B62A4
:1029C000FB681B68A94A934204D0FB681B6A7A6AB9
:1029D00013437B62FB681B689B6823F43061FB68D0
:1029E0001B687A6A0A439A60FB681B68A04A934294
:1029F00026D1A04BD3F8883003F00303032B1BD858
:102A000001A252F823F000BF192A0008292A000861
:102A1000212A0008312A0008012387F8233080E0AA
:102A2000022387F823307CE0042387F8233078E002
:102A3000082387F8233074E0102387F8233070E0F0
:102A4000FB681B688C4A934238D18A4BD3F8883094
:102A500003F00C030C2B2DD801A252F823F000BF79
:102A6000952A0008B52A0008B52A0008B52A0008EA
:102A7000A52A0008B52A0008B52A0008B52A0008CA
:102A80009D2A0008B52A0008B52A0008B52A0008C2
:102A9000AD2A0008002387F8233042E0022387F89C
:102AA00023303EE0042387F823303AE0082387F8F8
:102AB000233036E0102387F8233032E0FB681B68B0
:102AC0006A4A93422AD16B4BD3F8883003F44063AF
:102AD000B3F5406F1AD0B3F5406F1BD8B3F5006F54
:102AE0000CD0B3F5006F15D8002B03D0B3F5806F71
:102AF00008D00FE0002387F8233012E0022387F884
:102B000023300EE0042387F823300AE0082387F8F7
:102B1000233006E0102387F8233002E0102387F8E3
:102B20002330FB681B68514A93427AD197F82330CF
:102B3000082B24D801A252F823F000BF612B000813
:102B40007F2B0008692B00087F2B00086F2B0008E3
:102B50007F2B00087F2B00087F2B0008772B0008B5
:102B6000FFF772F8F86110E0444BFB610DE0FEF7EF
:102B7000D3FFF86109E04FF40043FB6105E0002357
:102B8000FB61012387F8223000BFFB69002B00F0B6
:102B90000781FB685A6813465B001344FA699A423E
:102BA00005D3FB685B681B03FA699A4203D90123CA
:102BB00087F82230F4E0FB6900221C4615464FF0EE
:102BC00000024FF000032B0243EA14632202F9686B
:102BD0004968490800208846814612EB080A43EB01
:102BE000090BFB685B6800223B607A60D7E9002331
:102BF00050465946FDF7ECFA02460B461346BB61B8
:102C0000BB69B3F5407F08D3BB69B3F5801F04D21D
:102C1000FB681B68BA69DA60C2E0012387F82230DA
:102C2000BEE0FB68DB69B3F5004F6AD197F823304B
:102C3000082B34D801A252F823F000BF612C000801
:102C4000812C0008892C00089F2C00088F2C00087C
:102C50009F2C00089F2C00089F2C0008972C000830
:102C6000FEF7F2FFF86120E0F369FFEF008000401B
:102C70000038014000100240004400400024F400ED
:102C8000FEF7F8FFF86110E04C4BFB610DE0FEF73A
:102C900043FFF86109E04FF40043FB6105E00023C6
:102CA000FB61012387F8223000BFFB69002B77D03E
:102CB000FB695A00FB685B685B081A44FB685B6849
:102CC000B2FBF3F3BB61BB690F2B16D9BB69B3F53C
:102CD000803F12D2BB699BB223F00F03FB82BB691A
:102CE0005B089BB203F007039AB2FB8A1343FB8293
:102CF000FB681B68FA8ADA6052E0012387F8223009
:102D00004EE097F82330082B27D801A252F823F081
:102D1000352D00083D2D0008452D00085B2D0008CD
:102D20004B2D00085B2D00085B2D00085B2D000873
:102D3000532D0008FEF788FFF86114E0FEF79AFFB4
:102D4000F86110E01D4BFB610DE0FEF7E5FEF86158
:102D500009E04FF40043FB6105E00023FB61012320
:102D600087F8223000BFFB69002B19D0FB685B6835
:102D70005A08FB691A44FB685B68B2FBF3F3BB615A
:102D8000BB690F2B09D9BB69B3F5803F05D2BB697D
:102D90009AB2FB681B68DA6002E0012387F82230F0
:102DA000FB6800229A66FB680022DA6697F82230F8
:102DB00018462837BD46BDE8B08F00BF0024F40098
:102DC00080B483B000AF78607B685B6A03F008036F
:102DD000002B0AD07B681B685B6823F400417B688A
:102DE0005A6B7B681B680A435A607B685B6A03F016
:102DF0000103002B0AD07B681B685B6823F4003159
:102E00007B689A6A7B681B680A435A607B685B6AC6
:102E100003F00203002B0AD07B681B685B6823F475
:102E200080317B68DA6A7B681B680A435A607B687A
:102E30005B6A03F00403002B0AD07B681B685B68A5
:102E400023F480217B681A6B7B681B680A435A60F5
:102E50007B685B6A03F01003002B0AD07B681B6859
:102E60009B6823F480517B689A6B7B681B680A43DC
:102E70009A607B685B6A03F02003002B0AD07B68B2
:102E80001B689B6823F400517B68DA6B7B681B68C6
:102E90000A439A607B685B6A03F04003002B1AD0F8
:102EA0007B681B685B6823F480117B681A6C7B6805
:102EB0001B680A435A607B681B6CB3F5801F0AD1FC
:102EC0007B681B685B6823F4C0017B685A6C7B6875
:102ED0001B680A435A607B685B6A03F08003002B1F
:102EE0000AD07B681B685B6823F400217B689A6CBE
:102EF0007B681B680A435A6000BF0C37BD465DF80B
:102F0000047B704780B598B002AF78607B68002280
:102F1000C3F88420FDF7BEFD78657B681B681B68DD
:102F200003F00803082B2ED16FF07E4300937B6DD6
:102F300000224FF40011786800F08CF80346002B53
:102F400021D07B681B68BB63BB6B53E8003F7B638E
:102F50007B6B23F080033B657B681B681A463B6DE7
:102F60007B643A64396C7A6C41E80023FB63FB6B49
:102F7000002BE6D17B682022DA677B68002283F889
:102F80007820032362E07B681B681B6803F004035E
:102F9000042B49D16FF07E4300937B6D00224FF4E8
:102FA0008001786800F056F80346002B3CD07B681F
:102FB0001B687B627B6A53E8003F3B623B6A23F4F9
:102FC0009073FB647B681B681A46FB6C3B63FA6278
:102FD000F96A3A6B41E80023BB62BB6A002BE6D179
:102FE0007B681B6808333B613B6953E8003FFB602B
:102FF000FB6823F00103BB647B681B680833BA6C71
:10300000FA61BB61B969FA6941E800237B617B69B8
:10301000002BE5D17B682022C3F880207B6800224A
:1030200083F87820032311E07B682022DA677B682D
:103030002022C3F880207B6800221A667B68002269
:103040005A667B68002283F8782000231846583798
:10305000BD4680BD80B584B000AFF860B9603B600C
:103060001346FB7149E0BB69B3F1FF3F45D0FDF763
:1030700011FD02463B68D31ABA699A4202D3BB6972
:10308000002B01D1032348E0FB681B681B6803F099
:103090000403002B31D0FB681B68DB6903F00803D5
:1030A000082B10D1FB681B6808221A62F86800F030
:1030B00038F8FB680822C3F88420FB68002283F8F4
:1030C0007820012329E0FB681B68DB6903F40063B7
:1030D000B3F5006F11D1FB681B684FF400621A62F0
:1030E000F86800F01EF8FB682022C3F88420FB6813
:1030F000002283F8782003230FE0FB681B68DA695D
:10310000BB681340BA689A420CBF01230023DBB2AC
:103110001A46FB799A42A6D0002318461037BD46BE
:1031200080BD80B495B000AF78607B681B687B631E
:103130007B6B53E8003F3B633B6B23F49073FB6472
:103140007B681B681A46FB6C3B64FA63F96B3A6C4C
:1031500041E80023BB63BB6B002BE6D17B681B6897
:1031600008333B623B6A53E8003FFB61FB6923F095
:103170000103BB647B681B680833BA6CFA62BB62EC
:10318000B96AFA6A41E800237B627B6A002BE5D1C9
:103190007B681B6E012B18D17B681B68FB60FB688A
:1031A00053E8003FBB60BB6823F010037B647B687F
:1031B0001B681A467B6CBB617A617969BA6941E820
:1031C00000233B613B69002BE6D17B682022C3F8DA
:1031D00080207B6800221A667B6800229A6600BF06
:1031E0005437BD465DF8047B7047000080B483B05F
:1031F00000AF03463960FB7197F90730002B0ADBFB
:103200003B68DAB20C4997F907301201D2B20B448D
:1032100083F800230AE03B68DAB20849FB7903F03F
:103220000F03043B1201D2B20B441A7600BF0C37D5
:10323000BD465DF8047B704700E100E000ED00E072
:1032400080B500AF00216FF00400FFF7CFFF00BF93
:1032500080BD000080B483B000AFEFF305833B6016
:103260003B68002B03D06FF005037B600CE00A4B3A
:103270001B68002B05D1084B01221A6000237B60DC
:1032800002E04FF0FF337B607B6818460C37BD4689
:103290005DF8047B704700BF0801002080B582B054
:1032A00000AFEFF305833B603B68002B03D06FF06A
:1032B00005037B6010E00B4B1B68012B09D1FFF766
:1032C000BFFF084B02221A6001F07AF800237B60EE
:1032D00002E04FF0FF337B607B6818460837BD463D
:1032E00080BD00BF0801002080B58EB004AFF8603B
:1032F000B9607A6000233B61EFF305837B617B69F2
:10330000002B7ED1FB68002B7BD080233B621823EF
:10331000FB6100237B624FF0FF33BB617B68002BB6
:1033200045D07B681B68002B02D07B681B687B62E2
:103330007B689B69002B02D07B689B69FB61FB6902
:10334000002B08D0FB69382B05D87B685B6803F03D
:103350000103002B01D0002354E07B685B69002B44
:1033600003D07B685B699B083B627B689B68002B92
:103370000ED07B68DB685B2B0AD97B681B69002B4E
:1033800006D07B685B69002B02D00123BB6110E093
:103390007B689B68002B0CD17B68DB68002B08D115
:1033A0007B681B69002B04D10023BB6101E0002373
:1033B000BB61BB69012B10D17B681B697A6892687D
:1033C00002920193FB690093BB683A6A796AF868D4
:1033D00000F01AFE03463B6113E0BB69002B10D1DD
:1033E0003B6A9AB207F110030193FB690093BB6833
:1033F000796AF86800F068FE0346012B01D00023CB
:103400003B613B6918462837BD4680BD80B584B016
:1034100000AF7860EFF30583BB60BB68002B03D07F
:103420006FF00503FB6007E00023FB607B68002B67
:1034300002D0786800F08EFFFB6818461037BD4652
:1034400080BD000080B485B000AFF860B9607A60DC
:10345000FB68074A1A60BB68064A1A607B688022CC
:103460001A6000BF1437BD465DF8047B704700BF8B
:103470000C0100206801002080B485B000AFF86026
:10348000B9607A60FB68074A1A60BB68064A1A602E
:103490007B684FF480721A6000BF1437BD465DF838
:1034A000047B704768030020C403002080B483B00D
:1034B00000AF78607B6803F108027B685A607B6824
:1034C0004FF0FF329A607B6803F108027B68DA6094
:1034D0007B6803F108027B681A617B6800221A602E
:1034E00000BF0C37BD465DF8047B704780B483B0E5
:1034F00000AF78607B6800221A6100BF0C37BD46C0
:103500005DF8047B704780B485B000AF78603960A7
:103510007B685B68FB603B68FA685A60FB689A6886
:103520003B689A60FB689B683A685A60FB683A6837
:103530009A603B687A681A617B681B685A1C7B68D2
:103540001A6000BF1437BD465DF8047B704780B435
:1035500085B000AF786039603B681B68BB60BB68B2
:10356000B3F1FF3F03D17B681B69FB600CE07B6814
:103570000833FB6002E0FB685B68FB60FB685B682C
:103580001B68BA689A42F6D2FB685A683B685A6070
:103590003B685B683A689A603B68FA689A60FB68C7
:1035A0003A685A603B687A681A617B681B685A1CE3
:1035B0007B681A6000BF1437BD465DF8047B704716
:1035C00080B485B000AF78607B681B69FB607B6866
:1035D0005B687A6892689A607B689B687A685268D0
:1035E0005A60FB685B687A689A4203D17B689A6884
:1035F000FB685A607B6800221A61FB681B685A1ED0
:10360000FB681A60FB681B6818461437BD465DF8F6
:10361000047B704780B584B000AF786039607B6808
:10362000FB60FB68002B0BD14FF0500383F3118834
:10363000BFF36F8FBFF34F8FBB6000BF00BFFDE7CD
:1036400002F07AF8FB681A68FB68DB6BF968096CB2
:1036500001FB03F31A44FB689A60FB6800229A633B
:10366000FB681A68FB685A60FB681A68FB68DB6BCA
:10367000013BF968096C01FB03F31A44FB68DA604B
:10368000FB68FF2283F84420FB68FF2283F8452073
:103690003B68002B14D1FB681B69002B1AD0FB6818
:1036A0001033184601F01AF90346002B12D00D4BC7
:1036B0004FF080521A60BFF34F8FBFF36F8F09E056
:1036C000FB6810331846FFF7F1FEFB6824331846F9
:1036D000FFF7ECFE02F062F8012318461037BD46F2
:1036E00080BD00BF04ED00E080B58EB002AFF86091
:1036F000B9607A603B60FB68002B0BD14FF0500340
:1037000083F31188BFF36F8FBFF34F8FBB6200BF8E
:1037100000BFFDE73B68002B0BD14FF0500383F354
:103720001188BFF36F8FBFF34F8F7B6200BF00BF65
:10373000FDE77B68002B02D0BB68002B01D0012382
:1037400000E00023002B0BD14FF0500383F31188CE
:10375000BFF36F8FBFF34F8F3B6200BF00BFFDE72A
:103760007B68002B02D1BB68002B01D1012300E054
:103770000023002B0BD14FF0500383F31188BFF3CC
:103780006F8FBFF34F8FFB6100BF00BFFDE750237A
:103790007B617B69502B0BD04FF0500383F3118872
:1037A000BFF36F8FBFF34F8FBB6100BF00BFFDE75B
:1037B0007B693B68FB62FB6A002B0DD0FB6A012230
:1037C00083F8462097F83820FB6A009313467A68FE
:1037D000B968F86800F005F8FB6A18463037BD464E
:1037E00080BD80B584B000AFF860B9607A60FB70CE
:1037F000BB68002B03D1BB69BA691A6002E0BB69E0
:103800007A681A60BB69FA68DA63BB69BA681A64D5
:103810000121B869FFF7FEFEBB69FA7883F84C20F6
:1038200000BF1037BD4680BD80B58EB000AFF860D8
:10383000B9607A603B6000237B63FB683B633B6B52
:10384000002B0BD14FF0500383F31188BFF36F8F20
:10385000BFF34F8FBB6200BF00BFFDE7BB68002B0B
:1038600003D13B6B1B6C002B01D1012300E0002333
:10387000002B0BD14FF0500383F31188BFF36F8FF0
:10388000BFF34F8F7B6200BF00BFFDE73B68022B99
:1038900003D13B6BDB6B012B01D1012300E0002343
:1038A000002B0BD14FF0500383F31188BFF36F8FC0
:1038B000BFF34F8F3B6200BF00BFFDE701F0CEF9C1
:1038C0000346002B02D17B68002B01D1012300E0CD
:1038D0000023002B0BD14FF0500383F31188BFF36B
:1038E0006F8FBFF34F8FFB6100BF00BFFDE701F09B
:1038F00023FF3B6B9A6B3B6BDB6B9A4202D33B68BB
:10390000022B29D13A68B968386B00F00FFAF862D7
:103910003B6B5B6A002B10D03B6B2433184600F0E6
:10392000DDFF0346002B13D03F4B4FF080521A604F
:10393000BFF34F8FBFF36F8F0AE0FB6A002B07D0F6
:10394000394B4FF080521A60BFF34F8FBFF36F8F28
:1039500001F024FF012363E07B68002B03D101F019
:103960001DFF00235CE07B6B002B06D107F11403E5
:10397000184601F017F801237B6301F00FFF00F0F8
:1039800087FD01F0D9FE3B6B93F844305BB2B3F195
:10399000FF3F03D13B6B002283F844203B6B93F83D
:1039A00045305BB2B3F1FF3F03D13B6B002283F89C
:1039B000452001F0F3FE3A1D07F1140311461846A5
:1039C00001F006F80346002B24D1386B00F0A6FA6C
:1039D0000346002B18D03B6B10337A68114618460B
:1039E00000F02AFF386B00F031FA00F05FFD03466B
:1039F000002B7FF47CAF0C4B4FF080521A60BFF36A
:103A00004F8FBFF36F8F72E7386B00F01FFA00F033
:103A10004DFD6CE7386B00F019FA00F047FD00230C
:103A200018463837BD4680BD04ED00E080B590B043
:103A300000AFF860B9607A603B60FB68BB63BB6B4A
:103A4000002B0BD14FF0500383F31188BFF36F8F1E
:103A5000BFF34F8FBB6200BF00BFFDE7BB68002B09
:103A600003D1BB6B1B6C002B01D1012300E00023B1
:103A7000002B0BD14FF0500383F31188BFF36F8FEE
:103A8000BFF34F8F7B6200BF00BFFDE73B68022B97
:103A900003D1BB6BDB6B012B01D1012300E00023C1
:103AA000002B0BD14FF0500383F31188BFF36F8FBE
:103AB000BFF34F8F3B6200BF00BFFDE701F01CFF6B
:103AC000EFF311824FF0500383F31188BFF36F8F30
:103AD000BFF34F8FFA61BB61FB697B63BB6B9A6B72
:103AE000BB6BDB6B9A4202D33B68022B2FD1BB6BC3
:103AF00093F8453087F83330BB6B9B6BFB623A68B9
:103B0000B968B86B00F012F997F93330B3F1FF3FA1
:103B100012D1BB6B5B6A002B16D0BB6B24331846EB
:103B200000F0DCFE0346002B0ED07B68002B0BD090
:103B30007B6801221A6007E097F833300133DBB26B
:103B40005AB2BB6B83F845200123FB6301E00023DD
:103B5000FB637B6B7B617B6983F3118800BFFB6B2D
:103B600018464037BD4680BD80B58CB000AFF860C8
:103B7000B9607A600023FB62FB68BB62BB6A002B02
:103B80000BD14FF0500383F31188BFF36F8FBFF356
:103B90004F8F3B6200BF00BFFDE7BB68002B03D126
:103BA000BB6A1B6C002B01D1012300E00023002B1A
:103BB0000BD14FF0500383F31188BFF36F8FBFF326
:103BC0004F8FFB6100BF00BFFDE701F047F80346E0
:103BD000002B02D17B68002B01D1012300E00023E0
:103BE000002B0BD14FF0500383F31188BFF36F8F7D
:103BF000BFF34F8FBB6100BF00BFFDE701F09CFD2D
:103C0000BB6A9B6B7B627B6A002B1FD0B968B86A6A
:103C100000F0F6F87B6A5A1EBB6A9A63BB6A1B699E
:103C2000002B0FD0BB6A1033184600F057FE034636
:103C3000002B07D03C4B4FF080521A60BFF34F8FE0
:103C4000BFF36F8F01F0AAFD012369E07B68002BB1
:103C500003D101F0A3FD002362E0FB6A002B06D133
:103C600007F11003184600F09DFE0123FB6201F0EE
:103C700095FD00F00DFC01F05FFDBB6A93F8443048
:103C80005BB2B3F1FF3F03D1BB6A002283F844204B
:103C9000BB6A93F845305BB2B3F1FF3F03D1BB6A17
:103CA000002283F8452001F079FD3A1D07F1100349
:103CB0001146184600F08CFE0346002B23D1B86A4B
:103CC00000F016F90346002B17D0BB6A24337A683C
:103CD0001146184600F0B0FDB86A00F0B7F800F0E1
:103CE000E5FB0346002B89D10F4B4FF080521A6041
:103CF000BFF34F8FBFF36F8F80E7B86A00F0A6F86D
:103D000000F0D4FB7AE7B86A00F0A0F800F0CEFB30
:103D1000B86A00F0EDF80346002B3FF46FAF0023C4
:103D200018463037BD4680BD04ED00E080B586B052
:103D300000AFF860B9607A6000237B61FB689B6B21
:103D40003B61FB681B6C002B0DD1FB681B68002BD3
:103D50004DD1FB689B68184600F09EFF7861FB68B8
:103D600000229A6043E07B68002B19D1FB685868F9
:103D7000FB681B6C1A46B96802F01AF8FB685A68AF
:103D8000FB681B6C1A44FB685A60FB685A68FB6846
:103D90009B689A422BD3FB681A68FB685A6026E03E
:103DA000FB68D868FB681B6C1A46B96802F000F81B
:103DB000FB68DA68FB681B6C5B421A44FB68DA60DC
:103DC000FB68DA68FB681B689A4207D2FB689A684E
:103DD000FB681B6C5B421A44FB68DA607B68022B51
:103DE00005D13B69002B02D03B69013B3B613B693C
:103DF0005A1CFB689A637B6918461837BD4680BD1C
:103E000080B582B000AF786039607B681B6C002B96
:103E100018D07B68DA687B681B6C1A447B68DA60B0
:103E20007B68DA687B689B689A4203D37B681A6870
:103E30007B68DA607B68D9687B681B6C1A463868D7
:103E400001F0B6FF00BF0837BD4680BD80B584B025
:103E500000AF786001F070FC7B6893F84530FB732D
:103E600011E07B685B6A002B12D07B682433184614
:103E700000F034FD0346002B01D000F00DFEFB7B6B
:103E8000013BDBB2FB7397F90F30002BE9DC00E05C
:103E900000BF7B68FF2283F8452001F07FFC01F022
:103EA0004BFC7B6893F84430BB7311E07B681B6963
:103EB000002B12D07B681033184600F00FFD03462C
:103EC000002B01D000F0E8FDBB7B013BDBB2BB73F4
:103ED00097F90E30002BE9DC00E000BF7B68FF2281
:103EE00083F8442001F05AFC00BF1037BD4680BD66
:103EF00080B584B000AF786001F01EFC7B689B6BDE
:103F0000002B02D10123FB6001E00023FB6001F0E4
:103F100045FCFB6818461037BD4680BD80B584B0AF
:103F200000AF786001F008FC7B689A6B7B68DB6B04
:103F30009A4202D10123FB6001E00023FB6001F003
:103F40002DFCFB6818461037BD4680BD80B485B097
:103F500000AF786039600023FB6014E00F4AFB6813
:103F600052F83330002B0BD10C49FB683A6841F80A
:103F700033200A4AFB68DB0013447A685A6006E083
:103F8000FB680133FB60FB68072BE7D900BF00BF6C
:103F90001437BD465DF8047B704700BFC40700209E
:103FA00080B586B000AFF860B9607A60FB687B616D
:103FB00001F0C2FB7B6993F844305BB2B3F1FF3F81
:103FC00003D17B69002283F844207B6993F8453054
:103FD0005BB2B3F1FF3F03D17B69002283F8452038
:103FE00001F0DCFB7B699B6B002B06D17B692433E2
:103FF0007A68B968184600F045FC7869FFF726FF33
:1040000000BF1837BD4680BD80B58EB004AFF860E4
:10401000B9607A603B607B6B002B0BD14FF0500393
:1040200083F31188BFF36F8FBFF34F8F3B6200BFE5
:1040300000BFFDE7BB6B002B0BD14FF0500383F3A8
:104040001188BFF36F8FBFF34F8FFB6100BF00BFBD
:10405000FDE75C233B613B695C2B0BD04FF05003C9
:1040600083F31188BFF36F8FBFF34F8FBB6100BF26
:1040700000BFFDE73B69BB6B002B1ED07B6B002BA9
:104080001BD0BB6B7B627B6A7A6B1A637B6A0222F2
:1040900083F85920002303937B6A029307F11403EA
:1040A00001933B6B00933B687A68B968F86800F04D
:1040B00050F8786A00F0DEF801E000237B617B694C
:1040C00018462837BD4680BD80B58CB004AFF86077
:1040D000B9603B601346FB80FB889B00184601F0EB
:1040E0004DFC78617B69002B0ED05C2001F046FC12
:1040F000F861FB69002B03D0FB697A691A6305E05C
:10410000786901F009FD01E00023FB61FB69002BE8
:1041100017D0FB69002283F85920FA880023039303
:10412000FB690293FB6A0193BB6A00933B68B96821
:10413000F86800F00EF8F86900F09CF80123BB6104
:1041400002E04FF0FF33BB61BB6918462037BD4624
:1041500080BD80B588B000AFF860B9607A603B6020
:104160003B6B186B7B689B001A46A52101F0F4FDA0
:104170003B6B1A6B7B6803F18043013B9B0013444C
:10418000BB61BB6923F00703BB61BB6903F0070395
:10419000002B0BD04FF0500383F31188BFF36F8FC8
:1041A000BFF34F8F7B6100BF00BFFDE7BB68002BF3
:1041B0001FD00023FB6112E0BA68FB691344197831
:1041C0003A6BFB69134434330A461A70BA68FB69C8
:1041D00013441B78002B06D0FB690133FB61FB699C
:1041E0000F2BE9D900E000BF3B6B002283F843208E
:1041F00003E03B6B002283F83420BB6A372B01D9E4
:104200003723BB623B6BBA6ADA623B6BBA6ADA6429
:104210003B6B00221A653B6B04331846FFF766F9C7
:104220003B6B18331846FFF761F93B6B3A6B1A6129
:10423000BB6AC3F138023B6B9A613B6B3A6B5A62C3
:104240003B6B00225A653B6B002283F858203A688A
:10425000F968B86901F03EF902463B6B1A60FB6AE7
:10426000002B02D0FB6A3A6B1A6000BF2037BD46B4
:1042700080BD000080B582B000AF786001F05CFACC
:104280002D4B1B6801332C4A13602C4B1B68002BF1
:1042900009D12A4A7B681360274B1B68012B10D178
:1042A00000F01EFC0DE0264B1B68002B09D1234BB0
:1042B0001B68DA6A7B68DB6A9A4202D81F4A7B680D
:1042C0001360204B1B6801331E4A13601D4B1A6894
:1042D0007B685A647B68DA6A1B4B1B689A4203D975
:1042E0007B68DB6A184A13607B68DA6A13469B00B6
:1042F00013449B00154A1A447B6804331946104640
:10430000FFF701F901F04AFA0D4B1B68002B0ED0A4
:104310000A4B1B68DA6A7B68DB6A9A4207D20C4B4D
:104320004FF080521A60BFF34F8FBFF36F8F00BF03
:104330000837BD4680BD00BFD80C0020040800200F
:10434000E40C0020F40C0020E00C00200808002001
:1043500004ED00E080B584B000AF78600023FB601E
:104360007B68002B18D0144B1B68002B0BD04FF030
:10437000500383F31188BFF36F8FBFF34F8FBB6080
:1043800000BF00BFFDE700F083F80021786800F06F
:10439000F3FC00F08BF8F860FB68002B07D1074BAB
:1043A0004FF080521A60BFF34F8FBFF36F8F00BF83
:1043B0001037BD4680BD00BF000D002004ED00E0B9
:1043C00080B58AB004AF0023BB6000237B603A460F
:1043D000391D07F108031846FFF734F839687B6880
:1043E000BA68029201930023009300230A462249EF
:1043F0002248FFF709FE0346214A1360204B1B6841
:10440000002B02D001237B6101E000237B617B69EB
:10441000012B02D100F004FD78617B69012B16D1DC
:104420004FF0500383F31188BFF36F8FBFF34F8FAB
:104430003B6100BF134B4FF0FF321A60124B012259
:104440001A60124B00221A6001F0D2F80FE07B696B
:10445000B3F1FF3F0BD14FF0500383F31188BFF34B
:104460006F8FBFF34F8FFB6000BF00BFFDE700BF42
:104470001837BD4680BD00BFF05D0008B14A000896
:10448000FC0C0020F80C0020E40C0020DC0C0020C8
:1044900080B400AF044B1B680133034A136000BFB4
:1044A000BD465DF8047B7047000D002080B584B0E8
:1044B00000AF0023FB600023BB60424B1B68002B56
:1044C0000BD14FF0500383F31188BFF36F8FBFF30D
:1044D0004F8F3B6000BF00BFFDE701F02DF9394B66
:1044E0001B68013B374A1360364B1B68002B62D1B7
:1044F000354B1B68002B5ED02FE0344BDB68DB684C
:10450000FB60FB6818331846FFF75AF8FB68043362
:104510001846FFF755F8FB68DA6A2D4B1B689A427C
:1045200003D9FB68DB6A2A4A1360FB68DA6A134620
:104530009B0013449B00274A1A44FB680433194626
:104540001046FEF7E0FFFB68DA6A234B1B68DB6A64
:104550009A4202D3214B01221A601C4B1B68002B8C
:10456000CBD1FB68002B01D000F058FB1C4B1B6823
:104570007B607B68002B10D000F046F80346002BD0
:1045800002D0164B01221A607B68013B7B607B687E
:10459000002BF1D1124B00221A60104B1B68002B2C
:1045A00009D00123BB600F4B4FF080521A60BFF35C
:1045B0004F8FBFF36F8F01F0F1F8BB6818461037CB
:1045C000BD4680BD000D0020D80C0020980C0020B6
:1045D000E00C00200808002004080020EC0C00205B
:1045E000E80C002004ED00E080B483B000AF054B80
:1045F0001B687B607B6818460C37BD465DF8047B02
:10460000704700BFDC0C002080B586B000AF0023EF
:104610007B614F4B1B68002B40F090804D4B1B681B
:1046200001333B614B4A3B6913603B69002B21D14D
:10463000494B1B681B68002B0BD04FF0500383F3D2
:104640001188BFF36F8FBFF34F8F3B6000BF00BF78
:10465000FDE7414B1B68FB60404B1B683E4A136003
:104660003E4AFB6813603E4B1B6801333C4A1360B3
:1046700000F0D4FA3B4B1B683A699A4249D3364B57
:104680001B681B68002B04D1364B4FF0FF321A60B9
:104690003FE0314B1B68DB68DB68BB60BB685B6875
:1046A0007B603A697B689A4203D22E4A7B6813602A
:1046B0002FE0BB6804331846FEF782FFBB689B6A95
:1046C000002B04D0BB6818331846FEF779FFBB688F
:1046D000DA6A254B1B689A4203D9BB68DB6A224A17
:1046E0001360BB68DA6A13469B0013449B001F4AA1
:1046F0001A44BB68043319461046FEF704FFBB6832
:10470000DA6A1B4B1B68DB6A9A42B8D301237B61D0
:10471000B5E7174B1B68DA6A144913469B0013442C
:104720009B000B441B68012B01D901237B61114BBA
:104730001B68002B07D001237B6104E00E4B1B6834
:1047400001330D4A13607B6918461837BD4680BD9A
:10475000000D0020DC0C0020900C0020940C0020A8
:10476000F00C0020F80C0020E00C002008080020CD
:1047700004080020EC0C0020E80C002080B485B078
:1047800000AF284B1B68002B03D0274B01221A6077
:1047900042E0254B00221A60244B1B68FB6011E0AD
:1047A000FB68002B0BD14FF0500383F31188BFF34C
:1047B0006F8FBFF34F8F7B6000BF00BFFDE7FB68CB
:1047C000013BFB601A49FA6813469B0013449B00A7
:1047D0000B441B68002BE3D0FA6813469B0013447C
:1047E0009B00134A1344BB60BB685B685A68BB6894
:1047F0005A60BB685A68BB6808339A4204D1BB68E8
:104800005B685A68BB685A60BB685B68DB68094ACA
:104810001360064AFB68136000BF1437BD465DF89D
:10482000047B7047000D0020EC0C0020E00C002001
:10483000080800200408002080B584B000AF78602C
:1048400039607B68002B0BD14FF0500383F3118844
:10485000BFF36F8FBFF34F8FFB6000BF00BFFDE75B
:10486000074B1B68183319467868FEF770FE012164
:10487000386800F081FA00BF1037BD4680BD00BF28
:104880000408002080B586B000AFF860B9607A6097
:10489000FB68002B0BD14FF0500383F31188BFF35B
:1048A0006F8FBFF34F8F7B6100BF00BFFDE70A4BE7
:1048B0001B6818331946F868FEF725FE7B68002B45
:1048C00002D04FF0FF33BB607968B86800F054FA4B
:1048D00000BF1837BD4680BD0408002080B586B0F3
:1048E00000AF78607B68DB68DB683B613B69002B6D
:1048F0000BD14FF0500383F31188BFF36F8FBFF3D9
:104900004F8FFB6000BF00BFFDE73B6918331846BF
:10491000FEF756FE1D4B1B68002B1DD13B6904336F
:104920001846FEF74DFE3B69DA6A194B1B689A423E
:1049300003D93B69DB6A164A13603B69DA6A13469E
:104940009B0013449B00134A1A443B6904331946E5
:104950001046FEF7D8FD05E03B69183319460E48AE
:10496000FEF7D1FD3B69DA6A0C4B1B68DB6A9A42A1
:1049700005D901237B610A4B01221A6001E0002363
:104980007B617B6918461837BD4680BD000D00204D
:10499000E00C002008080020980C002004080020EB
:1049A000EC0C002080B483B000AF7860064B1A682E
:1049B0007B681A60054B1A687B685A6000BF0C3729
:1049C000BD465DF8047B7047F00C0020DC0C002035
:1049D00080B588B000AF786039607B68002B0BD160
:1049E0004FF0500383F31188BFF36F8FBFF34F8FE6
:1049F0003B6100BF00BFFDE73B68002B0BD14FF0D0
:104A0000500383F31188BFF36F8FBFF34F8FFB60A9
:104A100000BF00BFFDE700F08FFE1D4B1B68BB61B0
:104A20007B685B68BA69D31A7B613B681B68B3F12A
:104A3000FF3F02D10023FB6123E07B681A68154B1E
:104A40001B689A4207D07B685B68BA699A4202D3B6
:104A50000123FB6115E03B681B687A699A420BD21F
:104A60003B681A687B69D21A3B681A607868FFF75E
:104A700099FF0023FB6104E03B6800221A600123D8
:104A8000FB6100F08BFEFB6918462037BD4680BDF8
:104A9000DC0C0020F00C002080B400AF034B01229E
:104AA0001A6000BFBD465DF8047B7047EC0C002027
:104AB00080B582B000AF786000F052F8064B1B68FA
:104AC000012BF9D9054B4FF080521A60BFF34F8F7D
:104AD000BFF36F8FF0E700BF0808002004ED00E08F
:104AE00080B582B000AF00237B600CE07A6813468B
:104AF0009B0013449B00124A13441846FEF7D6FC51
:104B00007B6801337B607B68372BEFD90D48FEF75C
:104B1000CDFC0D48FEF7CAFC0C48FEF7C7FC0C485C
:104B2000FEF7C4FC0B48FEF7C1FC0B4B054A1A60AC
:104B30000A4B054A1A6000BF0837BD4680BD00BF5A
:104B400008080020680C00207C0C0020980C002035
:104B5000AC0C0020C40C0020900C0020940C002011
:104B600080B582B000AF19E000F0E6FD104BDB68C5
:104B7000DB687B607B6804331846FEF721FD0D4B34
:104B80001B68013B0B4A13600B4B1B68013B0A4A35
:104B9000136000F003FE786800F010F8064B1B6805
:104BA000002BE1D100BF00BF0837BD4680BD00BF6C
:104BB000AC0C0020D80C0020C00C002080B584B0C4
:104BC00000AF78607B6893F85930002B08D17B6880
:104BD0001B6B184600F0A0FF786800F09DFF19E0FD
:104BE0007B6893F85930012B03D1786800F094FF6B
:104BF00010E07B6893F85930022B0BD04FF0500334
:104C000083F31188BFF36F8FBFF34F8FFB6000BF3B
:104C100000BFFDE700BF1037BD4680BD80B483B044
:104C200000AF0C4B1B681B68002B04D10A4B4FF0E4
:104C3000FF321A6008E0074B1B68DB68DB687B60AB
:104C40007B685B68044A136000BF0C37BD465DF8A3
:104C5000047B7047900C0020F80C002080B483B0D7
:104C600000AF0B4B1B68002B02D101237B6008E0D7
:104C7000084B1B68002B02D102237B6001E000235C
:104C80007B607B6818460C37BD465DF8047B704737
:104C9000E40C0020000D002080B586B000AF7860E5
:104CA0007B683B6100237B617B68002B58D02F4BD6
:104CB0001B683A699A420BD04FF0500383F3118876
:104CC000BFF36F8FBFF34F8FFB6000BF00BFFDE7E7
:104CD0003B691B6D002B0BD14FF0500383F3118800
:104CE000BFF36F8FBFF34F8FBB6000BF00BFFDE707
:104CF0003B691B6D5A1E3B691A653B69DA6A3B6961
:104D0000DB6C9A422CD03B691B6D002B28D13B6990
:104D100004331846FEF754FC3B69DA6C3B69DA62EF
:104D20003B69DB6AC3F138023B699A613B69DA6A25
:104D30000F4B1B689A4203D93B69DB6A0C4A13602C
:104D40003B69DA6A13469B0013449B00094A1A44E4
:104D50003B69043319461046FEF7D5FB01237B61FE
:104D60007B6918461837BD4680BD00BF0408002087
:104D7000E00C00200808002080B584B000AF786007
:104D80003960214B1B68FB60204B1B6804331846BD
:104D9000FEF716FC7B68B3F1FF3F0AD13B68002B9E
:104DA00007D01A4B1B68043319461948FEF7ABFBB2
:104DB00026E0FA687B681344BB60144B1B68BA6832
:104DC0005A60BA68FB689A4209D2124B1A680F4BB4
:104DD0001B68043319461046FEF7B9FB10E00E4B72
:104DE0001A680A4B1B68043319461046FEF7AFFBDE
:104DF0000A4B1B68BA689A4202D2084ABB68136021
:104E000000BF1037BD4680BDDC0C00200408002028
:104E1000C40C0020940C0020900C0020F80C002002
:104E200080B58AB004AF00237B6100F013FB1D4BFB
:104E30001B68002B21D00023FB600023BB603A1DC0
:104E400007F1080107F10C031846FEF715FB796816
:104E5000BB68FA68029201930223009300230A467A
:104E600011491248FFF7D0F80346114A1360104B5E
:104E70001B68002B01D001237B617B69002B0BD1C8
:104E80004FF0500383F31188BFF36F8FBFF34F8F41
:104E90003B6100BF00BFFDE77B6918461837BD4680
:104EA00080BD00BF340D0020F85D0008ED4F000804
:104EB000380D002080B58AB000AFF860B9607A6024
:104EC0003B6000237B62FB68002B0BD14FF050034B
:104ED00083F31188BFF36F8FBFF34F8F3B6200BF27
:104EE00000BFFDE7194B1B68002B2AD0BB683B6154
:104EF0007B687B61FB68BB61BB68052B18DCFFF737
:104F0000ADFE0346022B09D1104B186807F11001C2
:104F100000233A6BFEF788FC786212E00B4B1868AE
:104F200007F1100100230022FEF77EFC786208E002
:104F3000064B186807F1100100233A68FEF776FD6A
:104F400078627B6A18462837BD4680BD340D002044
:104F500080B588B002AF78603960234B1B68DB688E
:104F6000DB687B617B6904331846FEF729FB7B69AC
:104F700093F8283003F00403002B23D07B699A694F
:104F80007B68D1187B683A68786900F0D5F80346E9
:104F9000002B20D00023009300237A680021786939
:104FA000FFF788FF38613B69002B14D14FF05003A5
:104FB00083F31188BFF36F8FBFF34F8FFB6000BF88
:104FC00000BFFDE77B6993F8283023F00103DAB2D4
:104FD0007B6983F828207B691B6A7869984700BF42
:104FE0001837BD4680BD00BF2C0D002080B584B0B1
:104FF00000AF786007F10803184600F059F8F86030
:10500000BB681946F86800F005F800F0D7F800BF53
:10501000F0E7000080B584B000AF78603960FFF73A
:1050200037FA07F10803184600F066F8F860BB6825
:10503000002B30D13B68002B0AD17A68FB689A427A
:1050400006D8FFF733FAF9687868FFF781FF24E0A4
:105050003B68002B08D0134B1B681B68002B01D149
:10506000012300E000233B600F4B18687A68FB685F
:10507000D31A3A681946FEF793FFFFF717FA03466B
:10508000002B0AD1094B4FF080521A60BFF34F8FAB
:10509000BFF36F8F01E0FFF709FA00BF1037BD467D
:1050A00080BD00BF300D0020340D002004ED00E075
:1050B00080B485B000AF78600E4B1B681B68002B76
:1050C00001D1012200E000227B681A607B681B6826
:1050D000002B05D1074B1B68DB681B68FB6001E0F8
:1050E0000023FB60FB6818461437BD465DF8047B5F
:1050F000704700BF2C0D002080B584B000AF7860F1
:10510000FFF772FAF8600B4B1B68FA689A4205D2F7
:1051100000F03AF97B6801221A6002E07B68002205
:105120001A60044AFB681360FB6818461037BD46D6
:1051300080BD00BF3C0D002080B586B000AFF86098
:10514000B9607A603B6000237B61FB68BA685A6093
:10515000FB68FA681A61BA687B689A4212D87A6862
:105160003B68D21AFB689B699A4202D301237B6198
:105170001BE0104B1A68FB68043319461046FEF713
:10518000E6F912E07A683B689A4206D2BA683B6850
:105190009A4202D301237B6107E0074B1A68FB6840
:1051A000043319461046FEF7D2F97B6918461837C2
:1051B000BD4680BD300D00202C0D002080B58EB086
:1051C00002AFCEE07B68002B19DA3B1D0433FB6293
:1051D000FB6A002B0BD14FF0500383F31188BFF310
:1051E0006F8FBFF34F8FFB6100BF00BFFDE7FB6A0E
:1051F0001B68FA6A5068FA6A9268114698477B6899
:10520000002BC0F2AE80FB68BB62BB6A5B69002BFF
:1052100004D0BB6A04331846FEF7D2F93B46184661
:10522000FFF76AFF78627B68092B00F2978001A282
:1052300052F823F05D5200085D5200085D520008EC
:10524000D3520008E7520008335300085D520008AB
:105250005D520008D3520008E7520008BB6A93F879
:10526000283043F00103DAB2BB6A83F82820BA6819
:10527000BB6A9B69D118BB687A6AB86AFFF75CFFA2
:105280000346002B6CD0BB6A1B6AB86A9847BB6A9E
:1052900093F8283003F00403002B61D0BA68BB6A8E
:1052A0009B691A440023009300230021B86AFFF78A
:1052B00001FE38623B6A002B52D14FF0500383F35A
:1052C0001188BFF36F8FBFF34F8FBB6100BF00BF6B
:1052D000FDE7BB6A93F8283023F00103DAB2BB6A1A
:1052E00083F828203DE0BB6A93F8283043F001039F
:1052F000DAB2BB6A83F82820BA68BB6A9A61BB6AD3
:105300009B69002B0BD14FF0500383F31188BFF33F
:105310006F8FBFF34F8F7B6100BF00BFFDE7BB6A9C
:105320009A697B6AD1187B6A7A6AB86AFFF704FFC8
:1053300017E0BB6A93F8283003F00203002B03D177
:10534000B86A00F0E9FB0CE0BB6A93F8283023F060
:105350000103DAB2BB6A83F8282002E000BF00E054
:1053600000BF084B1B68391D00221846FEF7FCFBE6
:105370000346002B7FF426AF00BF00BF3037BD4689
:1053800080BD00BF340D002080B588B002AF49E079
:105390002E4B1B68DB681B683B612C4B1B68DB6872
:1053A000DB68FB60FB6804331846FEF709F9FB680D
:1053B0001B6AF8689847FB6893F8283003F00403E9
:1053C000002B2FD0FB689B693A691344BB60BA6815
:1053D0003B699A420ED9FB68BA685A60FB68FA6862
:1053E0001A611A4B1A68FB68043319461046FEF717
:1053F000AEF817E00023009300233A690021F86813
:10540000FFF758FD78607B68002B0BD14FF05003FD
:1054100083F31188BFF36F8FBFF34F8F3B6000BFE3
:1054200000BFFDE7094B1B681B68002BB0D1074B81
:105430001B687B61064B1B68044A1360044A7B6946
:10544000136000BF1837BD4680BD00BF2C0D002083
:10545000300D002080B582B002AF00F06DF9154B21
:105460001B68002B20D11448FEF720F81348FEF7E4
:105470001DF8134B104A1A60124B104A1A60002391
:105480000093114B114A10210A20FEF72DF9034613
:10549000084A1360074B1B68002B05D0054B1B689F
:1054A0000B491846FEF752FD00F078F900BFBD46E3
:1054B00080BD00BF340D0020040D0020180D002019
:1054C0002C0D0020300D0020E00D0020400D0020AC
:1054D000005E000880B485B000AFF860B9607A6003
:1054E000FB68043BFB60FB684FF080721A60FB684E
:1054F000043BFB60BB6823F00102FB681A60FB6899
:10550000043BFB600C4AFB681A60FB68143BFB60C1
:105510007A68FB681A60FB68043BFB60FB686FF00D
:1055200002021A60FB68203BFB60FB6818461437D8
:10553000BD465DF8047B70473D55000880B485B0DA
:1055400000AF00237B60134B1B68B3F1FF3F0BD010
:105550004FF0500383F31188BFF36F8FBFF34F8F6A
:10556000FB6000BF00BFFDE74FF0500383F31188DD
:10557000BFF36F8FBFF34F8FBB6000BF00BF7B686F
:10558000002BFCD000BF00BF1437BD465DF8047B84
:10559000704700BF0C000020000000000000000069
:1055A000074B19680868B0E8F04F80F30988BFF32B
:1055B0006F8F4FF0000080F311887047AFF30080C9
:1055C0000408002000BF00BF08480068006880F39E
:1055D00008884FF0000080F3148862B661B6BFF30C
:1055E0004F8FBFF36F8F00DF00BF00BF08ED00E0FB
:1055F00080B586B000AF474B1B68474A93420BD13A
:105600004FF0500383F31188BFF36F8FBFF34F8FB9
:105610003B6100BF00BFFDE73E4B1B683F4A934222
:105620000BD14FF0500383F31188BFF36F8FBFF39B
:105630004F8FFB6000BF00BFFDE7394B7B617B698B
:105640001B78DBB27B607B69FF221A707B691B7859
:10565000DBB2FB70FB78DBB203F05003DAB2314B04
:105660001A70314B07221A6009E02F4B1B68013B6F
:105670002D4A1360FB78DBB25B00DBB2FB70FB787A
:10568000DBB203F08003802BEFD0274B1B68C3F104
:105690000703042B0BD04FF0500383F31188BFF3A3
:1056A0006F8FBFF34F8FBB6000BF00BFFDE71E4B86
:1056B0001B681B021C4A13601B4B1B6803F4E0634E
:1056C000194A13607B68DAB27B691A70174B1B6842
:1056D000164A43F470031360144B1B68134A43F0DB
:1056E0007043136000F0DAF8114B00221A6000F0EA
:1056F000F9F8104B1B680F4A43F040431360FFF763
:1057000063FFFFF73BF8FFF719FF00231846183730
:10571000BD4680BD00ED00E071C20F4170C20F4177
:1057200000E400E0300E0020340E002020ED00E008
:105730000C00002034EF00E080B483B000AF4FF0E5
:10574000500383F31188BFF36F8FBFF34F8F7B60DC
:1057500000BF104B1B6801330E4A13600D4B1B68D2
:10576000012B10D10C4B1B68DBB2002B0BD04FF080
:10577000500383F31188BFF36F8FBFF34F8F3B60EC
:1057800000BF00BFFDE700BF0C37BD465DF8047BDE
:10579000704700BF0C00002004ED00E080B483B02F
:1057A00000AF124B1B68002B0BD14FF0500383F35B
:1057B0001188BFF36F8FBFF34F8F7B6000BF00BFB7
:1057C000FDE70A4B1B68013B084A1360074B1B6847
:1057D000002B05D100233B603B6883F3118800BF99
:1057E00000BF0C37BD465DF8047B70470C000020FD
:1057F000EFF30980BFF36F8F154B1A681EF0100F7F
:1058000008BF20ED108A20E9F04F10602DE9090053
:105810004FF0500080F31188BFF34F8FBFF36F8FAD
:10582000FEF7ACFF4FF0000080F3118809BC196847
:105830000868B0E8F04F1EF0100F08BFB0EC108AF7
:1058400080F30988BFF36F8F704700BFAFF300800C
:105850000408002000BF00BF80B582B000AF4FF049
:10586000500383F31188BFF36F8FBFF34F8F7B60BB
:1058700000BFFEF7C9FE0346002B03D0064B4FF0D6
:1058800080521A6000233B603B6883F3118800BF9D
:1058900000BF0837BD4680BD04ED00E080B400AF16
:1058A0000B4B00221A600B4B00221A600A4B1B683C
:1058B0000A4AA2FB03239B09094A013B1360044BDC
:1058C00007221A6000BFBD465DF8047B704700BF29
:1058D00010E000E018E000E000000020D34D62106E
:1058E00014E000E0DFF80C00016841F47001016091
:1058F000704700BF88ED00E080B485B000AFEFF3E3
:105900000583FB60FB680F2B15D9184AFB6813440D
:105910001B78FB72164B1B78FA7A9A420BD24FF027
:10592000500383F31188BFF36F8FBFF34F8F7B60FA
:1059300000BF00BFFDE70F4B1B6803F4E0620E4B96
:105940001B689A420BD94FF0500383F31188BFF3C1
:105950006F8FBFF34F8F3B6000BF00BFFDE700BFFD
:105960001437BD465DF8047B704700BFF0E300E0EC
:10597000300E00200CED00E0340E002080B58AB01F
:1059800000AF78600023FB61FEF782FD5C4B1B6873
:10599000002B01D100F024F95A4B1A687B681340A0
:1059A000002B40F095807B68002B1ED008227B687E
:1059B00013447B607B6803F00703002B15D07B68E2
:1059C00023F0070308337B607B6803F00703002B99
:1059D0000BD04FF0500383F31188BFF36F8FBFF3E9
:1059E0004F8F7B6100BF00BFFDE77B68002B6FD04E
:1059F000454B1B687A689A426AD8444B3B62434BDA
:105A00001B687B6204E07B6A3B627B6A1B687B628B
:105A10007B6A5B687A689A4203D97B6A1B68002BB1
:105A2000F1D1374B1B687A6A9A4251D03B6A1B68A6
:105A300008221344FB617B6A1A683B6A1A607B6A1E
:105A40005A687B68D21A08235B009A4220D97A6A86
:105A50007B681344BB61BB6903F00703002B0BD0C9
:105A60004FF0500383F31188BFF36F8FBFF34F8F55
:105A70003B6100BF00BFFDE77B6A5A687B68D21AB2
:105A8000BB695A607B6A7A685A60B86900F00AF9A3
:105A90001D4B1A687B6A5B68D31A1B4A13601A4B4A
:105AA0001A681B4B1B689A4203D2174B1B68184A93
:105AB00013607B6A5A68134B1B681A437B6A5A60EF
:105AC0007B6A00221A60134B1B680133114A136072
:105AD000FEF7ECFCFB6903F00703002B0BD04FF043
