:020000040800F2
:1000000000000120150800087106000873060008AA
:100010007506000877060008790600080000000051
:100020000000000000000000000000001134000883
:100030007B06000800000000A13400087D060008CF
:1000400065080008650800086508000865080008DC
:1000500065080008650800086508000865080008CC
:1000600065080008650800086508000865080008BC
:1000700065080008650800086508000865080008AC
:10008000650800086508000865080008650800089C
:10009000650800086508000865080008650800088C
:1000A000650800086508000865080008650800087C
:1000B0006508000800000000000000006508000856
:1000C0006508000800000000000000006508000846
:1000D0000000000065080008650800080000000036
:1000E0006508000865080008000000000000000026
:1000F0000000000000000000000000000000000000
:10010000000000000000000000000000650800087A
:1001100000000000000000009506000865080008C7
:1001200065080008650800086508000865080008FB
:10013000650800080000000000000000000000004A
:1001400065080008650800086508000865080008DB
:1001500065080008650800086508000865080008CB
:100160006508000865080008650800080000000030
:100170006508000865080008000000000000000095
:0C01800065080008650800086508000814
:1001900010B5054C237833B9044B13B10448AFF3C1
:1001A00000800123237010BD10000020000000001B
:1001B0002039000808B5034B1BB103490348AFF3CE
:1001C000008008BD00000000140000202039000855
:1001D00053B94AB9002908BF00281CBF4FF0FF31AE
:1001E0004FF0FF3000F06AB9ADF1080C6DE904CEB4
:1001F00000F006F8DDF804E0DDE9022304B0704702
:100200002DE9F047089D0C46002B4ED194468C45B5
:100210008646B2FA82F262D94AB1C2F12003914015
:1002200020FA03F30CFA02FC194300FA02FE4FEA2B
:100230001C471FFA8CF6B1FBF7F44FEA1E4307FB8D
:10024000141143EA014304FB06F199420AD91CEB5D
:10025000030304F1FF3080F01281994240F20F81D4
:10026000023C6344591A1FFA8EF3B1FBF7F007FB07
:10027000101143EA014300FB06F69E420AD91CEB2B
:10028000030300F1FF3180F0FC809E4240F2F980D0
:10029000634402389B1B40EA044000211DB1D34057
:1002A0000022C5E90032BDE8F0878B4205D90DB1C7
:1002B000C5E9000100210846F5E7B3FA83F10029FA
:1002C00046D1A34202D39042C0F0F080861A64EB7C
:1002D00003030120002DE6D0C5E90063E3E7002A0F
:1002E00040F09080A1EB0C044FEA1C481FFA8CF7F9
:1002F0000121B4FBF8F64FEA1E4308FB164443EA1B
:10030000044307FB06F0984208D91CEB030306F1EF
:10031000FF3402D2984200F2CD8026461C1A1FFA02
:100320008EF3B4FBF8F008FB104443EA044300FBEF
:1003300007F79F4208D91CEB030300F1FF3402D2F8
:100340009F4200F2B0802046DB1B40EA0640A5E752
:10035000C1F120068B4022FA06F71F4320FA06FC63
:1003600004FA01F343EA0C03F44000FA01F8380CF4
:100370004FEA1349B4FBF0FE1FFA87FC00FB1E4452
:1003800049EA04440EFB0CF9A14502FA01F20AD92C
:100390003C190EF1FF3A80F08480A14540F2818043
:1003A000AEF1020E3C44A4EB09041FFA83F9B4FB3E
:1003B000F0F300FB134449EA044403FB0CFCA4459E
:1003C00007D93C1903F1FF3067D2A44565D9023B38
:1003D0003C4443EA0E40A0FB0293A4EB0C049C4275
:1003E000CE469C4651D34ED055B1B8EB0E0364EBCC
:1003F0000C0404FA06F6CB401E43CC40C5E9006469
:10040000002150E7C2F1200320FA03F10CFA02FCAC
:1004100024FA03F394400C434FEA1C4800FA02FE0E
:100420001FFA8CF7B3FBF8F008FB1031230C43EAFA
:10043000014300FB07F1994208D91CEB030300F1CB
:10044000FF362CD299422AD9023863445B1AA4B2EF
:10045000B3FBF8F108FB113344EA034401FB07F353
:10046000A34208D91CEB040401F1FF3613D2A342C6
:1004700011D902396444E41A41EA004139E70446DB
:10048000F0E6084606E7C845AED2B9EB020E63EBCC
:10049000070C0138A8E73146EDE7034699E73046F7
:1004A000D4E7D6467FE7634402384DE70646234645
:1004B00008460FE7023E634430E700BF704700BFC5
:1004C00008B5012001F06BFDFBE7000008B5044A08
:1004D0000448002101F01CFD034B186008BD00BF5B
:1004E00044390008C10400082C00002010B588B071
:1004F0001422002103A803F0D9F9174B174CDA6C2A
:1005000042F00402DA64DA6C02F004020092009A0B
:10051000DA6C42F00102DA64DA6C02F00102019254
:10052000019ADA6C42F00202DA64DB6C03F0020337
:100530000293204600220821029B00F0FBFA0822C9
:100540000123CDE90323059303A900232046069345
:1005500000F038FA08B010BD001002400004004856
:100560000148082100F0EBBA0004004830B597B00C
:100570004422002105A8142403F098F92246002102
:10058000684603F093F94FF4007000F0F1FA054665
:1005900008B172B6FEE700F0DBFA184AD2F89030E4
:1005A00023F01803C2F89030102060230722CDE911
:1005B000120205940D930124022305A8CDE90B45F1
:1005C000CDE90F34CDE914330794119400F096FB74
:1005D00008B172B6FEE7CDE902000F2203230490B2
:1005E00021466846CDE9002300F02AFE08B172B624
:1005F000FEE701F0C9F817B030BD00BF001002409F
:1006000008B500F057F9FFF7B1FFFFF76FFF00F0F3
:1006100095F800F04FF8054801F0BEF801F04CFCE9
:10062000FFF754FF01F05AFCFEE700BF3000002046
:1006300072B6FEE70D4B1A6E42F001021A661A6E90
:1006400082B002F001020092009A9A6D42F080524C
:100650009A659B6D03F080530193019B00220F214B
:100660006FF0010002B000F059B900BF0010024065
:10067000FEE7FEE7FEE7FEE7FEE7704708B500F09D
:1006800029F902F037FC012803D0BDE8084002F048
:1006900039BF08BD014801F0ADB800BF30000020EF
:1006A000034AD2F8883043F47003C2F888307047A8
:1006B00000ED00E01FB50F480F4A41F61F4300242C
:1006C000C0E9002344F61F63CDE90144039484602C
:1006D000C360846101F068F908B1FFF7A9FF05481C
:1006E000019401A9039401F08FF908B1FFF7A0FF6D
:1006F00004B010BD300000200010004007B50E4BC4
:1007000002689A4215D103F5003305219A6D42F033
:1007100010029A659B6D03F01003019300223620AE
:10072000019B00F0FBF8362003B05DF804EB00F00D
:1007300027B903B05DF804FB001000400C480D4AD7
:1007400008B54FF4E133C0E9002300230C22C0E9CF
:100750000233C0E90523C0E907330361436201F0B6
:100760007CFB18B1BDE80840FFF762BF08BD00BFC1
:100770007C0000200044004070B59CB00446142268
:10078000002102A803F092F85422002107A803F0E8
:100790008DF822681D4B9A4235D1022307A8079392
:1007A00000F0A2FE08B1FFF743FF194B9A6D42F427
:1007B00000329A659A6D02F400320092009ADA6C67
:1007C00042F00102DA64DB6C03F001030193019B48
:1007D000022604230324CDE902360025072302A9BB
:1007E0004FF090400693CDE9045400F0EBF84FF43D
:1007F000004302A94FF09040CDE90236CDE9045400
:10080000069400F0DFF81CB070BD00BF004400404B
:1008100000100240DFF834D0FFF742FF0C480D49CA
:100820000D4A002302E0D458C4500433C4188C424B
:10083000F9D30A4A0A4C002301E013600432A242B1
:10084000FBD303F03BF8FFF7DBFEFEE700000120DF
:100850000000002010000020D43900081000002003
:100860000C1A0020FEE7000038B50F4B1A78054639
:100870000AB9012038BD4FF47A73B3FBF2F30B4A87
:100880001068B0FBF3F000F089F804460028F0D1BE
:100890000F2DEED8024629464FF0FF3000F03EF80B
:1008A000034B20461D60E5E7040000200000002007
:1008B0000800002010B5032000F01EF80F20FFF7FD
:1008C000D3FF044618B9FFF7B5FE204610BD01243A
:1008D000FBE70000034A044B11681B780B441360CC
:1008E000704700BF0401002004000020014B18687D
:1008F000704700BF040100200749CA6822F4E06283
:100900000302120403F4E063120C134343F0BF63C9
:1009100043F40033CB60704700ED00E0164B30B578
:10092000DC68C4F30224C4F10703251D042B28BF8F
:100930000423062D4FF0FF358CBF033C002405FA3D
:1009400003F321EA0303A54022EA0502A34000289D
:1009500043EA0203ACBF00F16040084A4FEA0313C8
:10096000B8BF00F00F00DBB2AABF00F5614013541E
:1009700080F8003330BD00BF00ED00E014ED00E072
:10098000002807DB044A4109012300F01F008340CF
:1009900042F82130704700BF00E100E00138B0F1BB
:1009A000807F0BD24FF0E023054A5861F02182F896
:1009B00023100020072298611A61704701207047B8
:1009C00000ED00E02DE9F74FDFF86491564C00236D
:1009D0000A6832FA03F502D103B0BDE8F08F0125B1
:1009E00005FA03F818EA020200F098804E6803271F
:1009F00006F003054FEA430E07FA0EFC6F1E012FA7
:100A00006FEA0C0C34D8876807EA0C0ACF6807FA3B
:100A10000EF747EA0A078760476827EA0808C6F31F
:100A200000179F4047EA08074760C76807EA0C08B5
:100A30008F6807FA0EF747EA0807022DC76019D139
:100A40004FEAD30800EB880803F0070AD8F82070B3
:100A50004FEA8A0A4FF00F0B0BFA0AFB27EA0B0B3F
:100A60000F6907FA0AF747EA0B07C8F8207001E098
:100A7000032DDAD1076805FA0EF507EA0C073D43A6
:100A800016F4403F056049D0D9F8605045F00105A3
:100A9000C9F86050D9F8605023F0030707F1804788
:100AA00005F0010507F58037019503F0030C019D62
:100AB000BD684FEA8C0C4FF00F0E0EFA0CFEB0F131
:100AC000904F25EA0E0E2BD0184DA8422AD005F5DE
:100AD0008065A84214BF0725022505FA0CF545EAF2
:100AE0000E05BD60A568D74316F4801F0CBF3D40BE
:100AF0001543A560E56816F4001F0CBF3D40154383
:100B0000E560656816F4003F0CBF3D401543656025
:100B10002568F60354BF3D4015432560013357E770
:100B20000025DAE70125D8E7000401400004004869
:100B3000001002400AB181617047816270474369C9
:100B400001EA030221EA030141EA0241816170479F
:100B5000024A136843F480731360704700700040CA
:100B6000024B186800F4C060704700BF007000407E
:100B7000174A1368B0F5007F03F4C0631BD1B3F5C7
:100B8000007F1BD0136823F4C06343F40073136029
:100B9000104B1B6832214B430F49B3FBF1F3013378
:100BA0005169490500D523B953695B0506D5032072
:100BB0007047013BF4E7B3F5806F01D10020704727
:100BC000136823F4C06343F480631360F6E700BF47
:100BD000007000400000002040420F0037B51E4D5D
:100BE000AB6DDA00044618D5FFF7BAFFB0F5007F09
:100BF00023D1802C29D9A12C34BF012402241749E8
:100C00000A6822F0070222430A60086800F0070021
:100C1000001B18BF012003B030BDAB6D43F0805303
:100C2000AB65AB6D03F080530193019BFFF798FF19
:100C3000AB6D23F08053AB65D8E7802C07D808D084
:100C4000A4F170035C425C41D9E70024D7E7032498
:100C5000D5E70224D3E700BF001002400020024085
:100C6000224B9A68D96812F00C0205D00C2A15D1D3
:100C700001F00301012918D119681D48090755BF62
:100C8000D3F894101968C1F30321C1F3031150F88C
:100C900021004AB30C2A09D000207047042A22D030
:100CA000082A144818BF002070470020DA6802F0B4
:100CB0000302022A15D00F49032A08BF0846D96843
:100CC000DA68C2F306224243D868C0F34160C1F338
:100CD0000211013001314000B2FBF1F2B2FBF0F041
:100CE00070470548EBE70448704700BF001002401A
:100CF0006839000800127A000024F4002DE9F74357
:100D00000546002860D0954C0368A668E768DB06B6
:100D100006F00C0607F0030776D51EB10C2E55D150
:100D2000012F53D12368980702D5AB69002B4BD014
:100D30002368286A190756BFD4F8943023681B0922
:100D400003F0F003984229D9FFF748FF00283BD170
:100D5000236843F00803236023682A6A23F0F00322
:100D6000134323606368EA6923F47F4343EA022361
:100D70006360FFF775FFA368794AC3F30313D35C7D
:100D800003F01F03D840774B1860774B1868FFF7C4
:100D90006BFD002838D003B0BDE8F083236843F032
:100DA00008032360236823F0F00303432360636890
:100DB000EA6923F47F4343EA02236360002ED8D11B
:100DC000FFF70CFF0028D4D00120E4E7AB69002B2B
:100DD0003AD0236843F001032360FFF787FD804684
:100DE00023689A0728D5236843F008032360236803
:100DF0002A6A23F0F003134323606368EA6923F44B
:100E00007F4343EA022363602B68D8072DD42B6805
:100E100099076BD42B68180700F1A8802B68590735
:100E200000F1CE802B68980600F13781AB6A002B69
:100E300040F05D810020AEE7FFF758FDA0EB080011
:100E40000228CDD90320A6E7236823F001032360FD
:100E5000FFF74CFD804623689B07D5D5FFF746FD7D
:100E6000A0EB08000228F6D9ECE7082E03D00C2EE0
:100E700008D1032F06D123689A03C8D56B68002BCD
:100E8000C5D1A1E76B68B3F5803F10D1236843F467
:100E900080332360FFF72AFD804623689B03B6D486
:100EA000FFF724FDA0EB08006428F6D9CAE7B3F5E4
:100EB000A02F04D1236843F480232360E6E722684F
:100EC00022F480322260226822F480222260002BE9
:100ED000E0D1FFF70BFD80462368980397D5FFF715
:100EE00005FDA0EB08006428F6D9ABE7042E03D07B
:100EF0000C2E10D1022F0ED12368590503D5EB68B3
:100F0000002B3FF461AF63682A6923F0F85343EA8A
:100F1000026363607EE7EB687BB1236843F4807310
:100F20002360FFF7E3FC074623685A05EBD4FFF77D
:100F3000DDFCC01B0228F7D984E7236823F4807303
:100F40002360FFF7D3FC074623685B057FF562AF9C
:100F5000FFF7CCFCC01B0228F6D973E70010024053
:100F6000A039000800000020080000206B699BB138
:100F7000D4F8943043F00103C4F89430FFF7B6FC82
:100F80000746D4F894309A073FF548AFFFF7AEFC18
:100F9000C01B0228F5D955E7D4F8943023F001039B
:100FA000C4F89430FFF7A2FC0746D4F894309B07AE
:100FB0007FF534AFFFF79AFCC01B0228F5D941E753
:100FC000A36DDF0029D4A36D43F08053A365A36D07
:100FD00003F080530193019B4FF00108954F3B684C
:100FE000D8051DD5AB68012B2BD1D4F8903043F038
:100FF0000103C4F89030FFF779FC41F288390746C5
:10100000D4F890309A0742D5B8F1000F3FF40AAFF8
:10101000A36D23F08053A36504E74FF00008DDE7DC
:101020003B6843F480733B60FFF760FC81463B689C
:10103000D905D7D4FFF75AFCA0EB09000228F6D94E
:1010400000E7052B06D1D4F8903043F00403C4F830
:101050009030CAE7D4F8902022F00102C4F8902022
:10106000D4F8902022F00402C4F89020002BC2D1C2
:10107000FFF73CFC41F288390746D4F890309B07D3
:10108000C2D5FFF733FCC01B4845F6D9DAE6FFF7B7
:101090002DFCC01B4845B3D9D4E66B6A9BB1D4F88C
:1010A000983043F00103C4F89830FFF71FFC07465F
:1010B000D4F8983099073FF5B9AEFFF717FCC01B7D
:1010C0000228F5D9BEE6D4F8983023F00103C4F81D
:1010D0009830FFF70BFC0746D4F898309A077FF555
:1010E000A5AEFFF703FCC01B0228F5D9AAE6022B28
:1010F00040F08880E368EA6A03F00301914222D15C
:10110000296B03F070020139B2EB011F1BD1696B2F
:1011100003F4FE42B2EB012F15D1A96B03F0784224
:10112000B2EBC16F0FD1EA6B520803F4C001013A70
:10113000B1EB425F07D12A6C520803F0C063013A59
:10114000B3EB426F45D00C2E3FF43EAE23685B01FB
:101150003FF53AAE236823F080732360FFF7C6FBA8
:10116000064623689F012ED4E268334B1340EA6A97
:1011700013436A6B43EA0223AA6B43EAC2632A6BF6
:10118000013A43EA0213EA6B5208013A43EA425336
:101190002A6C5208013A43EA4263E360236843F051
:1011A00080732360E36843F08073E360FFF79EFB86
:1011B0000546236898013FF53DAEFFF797FB401BBE
:1011C0000228F6D93EE6FFF791FB801B0228C8D91A
:1011D00038E6236899013FF52DAE236843F080730C
:1011E0002360E36843F08073E360FFF77FFB05460D
:1011F00023689A013FF51EAEFFF778FB401B0228DB
:10120000F6D91FE60C2E3FF4DFAD236823F0807380
:101210002360FFF76BFB054623689B0104D4E2685B
:10122000064B1340E36005E6FFF760FB401B022816
:10123000F2D907E6007000408C809D01FCFFEEFEB5
:101240002DE9F0410D46044610B90120BDE8F081BA
:101250004B4A136803F007038B422CD3216888079D
:1012600034D4C9073FD421688A0768D4444A136834
:1012700003F00703AB426FD811F0040F414D77D153
:101280000B0706D5AB68226923F4605343EAC20317
:10129000AB60FFF7E5FCAB683B4AC3F30313BDE863
:1012A000F041D35C03F01F03D840384B1860384B33
:1012B0001868FFF7D9BA136823F007030B431360CC
:1012C000136803F007038B42BFD1C7E72D4AA0681C
:1012D000936803F0F003984281BF936823F0F00312
:1012E00003439360BDE76268264E032A33681AD130
:1012F00013F0007FA9D0B36823F003031343B36056
:10130000FFF7F4FA41F288380746B368626803F0E1
:101310000C03B3EB820FA6D0FFF7E8FAC01B4045E1
:10132000F3D9032092E7022A02D113F4003FE1E748
:1013300012B913F0020FDDE713F4806FDAE7114AF8
:10134000A068936803F0F00398423FBF936823F0CE
:10135000F0030343936089E7136823F007032B43EB
:101360001360136803F00703AB427FF46EAF83E7AB
:10137000AB68E26823F4E0631343AB6080E700BF2F
:101380000020024000100240A039000800000020A8
:1013900008000020054B064A9B68C3F30223D35C78
:1013A000044A106803F01F03D84070470010024041
:1013B0009839000800000020054B064A9B68C3F3DB
:1013C000C223D35C044A106803F01F03D84070475F
:1013D000001002409839000800000020F8B5414C88
:1013E000E3689B0705460E46006828D0E36803F0D3
:1013F000030383423AD1002B38D0E3686A68C3F311
:1014000002130133934231D1236823F080632360B8
:10141000FFF76CFA074623681A0130D4AA68120253
:10142000A6B3012E23694BD1296923F4C0034908CF
:1014300023F4FE430139134343EA41532FE00228CA
:1014400010D0032814D0012810D123689F071CD581
:10145000E3686A6823F07303013A034343EA021323
:10146000E360D1E7236813F4806FF1D101200CE031
:1014700023689903ECD4236813F4802FF5E7FFF772
:1014800035FAC01B0228C6D90320F8BD2169EB68D4
:1014900042EAC36321F0784222F4FE4213432361FF
:1014A000236843F080632360FFF720FA0646236831
:1014B0001B0110D52369AA69134323610020E4E7C7
:1014C000696923F0C063490823F4FE4301391343DB
:1014D00043EA4163E3E7FFF709FA801B0228E6D9F4
:1014E000D2E700BF0010024003682DE9F7431E0554
:1014F000044640F1E780C16BB1F5000F00F0D480E5
:10150000B1F5400F00F0D580002900F0DD80012604
:1015100023689D0333D59A4DAB6DD80000F1DC8074
:10152000AB6D43F08053AB65AB6D03F0805301931B
:10153000019B0127DFF84C82D8F8003043F4807318
:10154000C8F80030FFF7D2F98146D8F80030D90545
:1015500040F1C48076B9D5F89020236D12F4407222
:1015600040F0C580D5F89030226D23F440731343CA
:10157000C5F890301FB1AB6D23F08053AB65236885
:10158000DF0708D57E49206AD1F8882022F00302BF
:101590000243C1F888209D0708D57949606AD1F8CF
:1015A000882022F00C020243C1F88820980608D552
:1015B0007349A06AD1F8882022F440620243C1F83E
:1015C0008820990508D56E49606BD1F8882022F4EF
:1015D00040220243C1F888205A0508D56849A06B0B
:1015E000D1F8882022F440120243C1F888205F0617
:1015F00008D56349E06AD1F8882022F440520243BA
:10160000C1F88820DD0508D55D49206BD1F8882018
:1016100022F440320243C1F88820980410D5584A79
:10162000216CD2F8883023F040630B43B1F1006F96
:10163000C2F8883040F08380D36843F48013D360CD
:101640003746236859030FD54D4A616CD2F888306C
:1016500023F040630B43B1F1006FC2F888307BD1B7
:10166000D36843F48013D3603D4623685A040BD5F6
:101670004349A26CD1F8883023F040531343B2F1B0
:10168000805FC1F8883073D0284623681B0408D5D2
:101690003B4AE16CD2F8883023F080430B43C2F818
:1016A000883003B0BDE8F083354AD36843F4803313
:1016B000D360334AE16BD2F8883023F440030B4304
:1016C000C2F88830002623E70430FFF787FE06467D
:1016D00000287FF41DAFECE700272BE7FFF706F9A2
:1016E000A0EB090002287FF630AF032642E79A42BA
:1016F00011D0D5F89030D5F8902042F48032C5F85A
:101700009020D5F8902023F4407322F48032C5F85D
:101710009020C5F89030DA077FF524AFFFF7E6F8A0
:1017200041F288398046D5F890309B073FF51AAFD3
:10173000FFF7DCF8A0EB08004845F4D9D5E7B1F194
:10174000806F7FF47DAF0121201DFFF747FE074624
:1017500000283FF475AF74E7B1F1806F84D10121A7
:10176000201DFFF73BFE054600283FF47DAF7CE7D8
:101770000221201DFFF732FE002885D085E700BF3B
:101780000010024000700040024A136843F0040356
:10179000136070470010024090F83D30012B1FD1BC
:1017A000022380F83D300368DA6842F00102DA6013
:1017B0000C4A934206D0B3F1804F03D002F5A052F9
:1017C000934207D19968084A0A40062A06D0B2F522
:1017D000803F03D01A6842F001021A60002070476F
:1017E00001207047002C014007000100704770473E
:1017F00070477047036870B5DD681E69B20704461C
:101800000DD5A9070BD56FF002021A6101220277EC
:101810009B699A0774D0FFF7EAFF002323777307C9
:1018200010D568070ED523686FF004021A610222F2
:1018300022779B6913F4407F204667D0FFF7D7FFDC
:101840000023237731070FD52A070DD523686FF0C2
:1018500008021A6104222277DB699B0720465BD0CD
:10186000FFF7C5FF00232377F00610D5E9060ED554
:1018700023686FF010021A6108222277DB6913F4E3
:10188000407F20464ED0FFF7B2FF00232377F207B8
:1018900008D5EB0706D523686FF001021A612046D0
:1018A000FEF75EFE300608D5290606D523686FF0E0
:1018B00080021A61204600F0DAF8F20508D52B06FE
:1018C00006D523686FF480721A61204600F0D0F8C4
:1018D000700608D5690606D523686FF040021A61C4
:1018E0002046FFF786FFB20622D5AB0620D5236837
:1018F0006FF0200220461A61BDE8704000F0B6B8D3
:10190000FFF774FF2046FFF773FF86E7FFF76EFFD0
:101910002046FFF76DFF93E7FFF768FF2046FFF7CC
:1019200067FF9FE7FFF762FF2046FFF761FFACE725
:1019300070BD00001A4A0368904210B502D0B0F1A1
:10194000804F09D14C6823F07003904243EA0403AE
:1019500009D0B0F1804F06D0124A904203D002F570
:101960008062904203D1CA6823F4407313434A69EA
:1019700023F08003134303608B68C3620B688362A8
:10198000074B984207D003F5A053984203D003F5C4
:101990008063984201D10B6903630123436110BD49
:1019A000002C01400040014010B5044650B390F8AF
:1019B0003D3003F0FF021BB980F83C20FEF79EFE8D
:1019C0000223206884F83D30211DFFF7B3FF012377
:1019D00084F84830002084F83E3084F83F3084F8A2
:1019E000403084F8413084F8423084F8433084F841
:1019F000443084F8453084F8463084F8473084F821
:101A00003D3010BD0120FCE770B590F83C30012B53
:101A100004464FF0020023D02268124D84F83D00A6
:101A200053689068AA4202BF4E6823F470033343A0
:101A30000E6823F070033343AA42536005D0B2F11D
:101A4000804F02D0084B9A4204D1896820F080036D
:101A50000B4393600123002084F83D3084F83C0060
:101A600070BD00BF002C014000400140704770472E
:101A70007047026852E8003F23F4907342E8003157
:101A800002680029F5D102F1080353E8003F23F072
:101A9000010302F1080C4CE800310029F3D1036E78
:101AA000012B07D152E8003F23F0100342E8003138
:101AB0000029F7D12023C0F8803000230366836615
:101AC0007047000038B5044603682169A2681D68A4
:101AD000C0690A4361690A436049024329400A43D5
:101AE0001A605A68E16822F440520A435A605C4A1C
:101AF000A16993421CBF226A11439A6822F43062A2
:101B00000A439A60574A934212D1574BD3F8883010
:101B100003F00303022B00F09280032B1BD0012B58
:101B200040F09580B0F5004F71D1FFF799F857E07C
:101B30004E4A934215D14C4BD3F8883003F00C0336
:101B4000082B7CD005D8002B64D0042BEAD00120D0
:101B500024E00C2BFBD1B0F5004F43D04FF40040F4
:101B60005FE03F4A9342F2D13F4BD3F8883003F411
:101B70004063B3F5006F15D006D85BB1B3F5806F45
:101B8000E5D1FFF76DF807E0B3F5406FDFD14FF413
:101B9000004008E0FFF7FEFB28B900200023C4E95D
:101BA0001A3338BD3248626802EB42038342CED812
:101BB000B0EB023FCBD8510800238C464FF4807520
:101BC0001946E0FB05C16046FEF702FB294BA0F574
:101BD00040729A42BBD82368D860DEE7FFF7DAFB91
:101BE0000028DAD06268530803EB4003B3FBF2F33A
:101BF0004FF6EF72A3F110019142A8D823F00F0223
:101C0000216892B2C3F342031343CB60C5E7FFF7E9
:101C100027F804E0B0F5004FE0D0FFF7BBFB002849
:101C2000BBD0626800EB5203B3FBF2F34FF6EF72E6
:101C3000A3F1100191428AD82268D360ADE7B0F5D4
:101C4000004F0B48EDD1CDE7FFF7B6FBC8E7B0F585
:101C5000004FF9D0FFF7B0FBE1E700BFF369FFEFFA
:101C60000080004000380140001002400044004065
:101C70000024F400FFFC0F00436A1A0710B506D5D4
:101C80000168446B4A6822F4004222434A60DC0740
:101C900006D50168846A4A6822F4003222434A6009
:101CA000990706D50168C46A4A6822F48032224343
:101CB0004A605A0706D50168046B4A6822F48022FC
:101CC00022434A60DC0606D50168846B8A6822F4E8
:101CD000805222438A60990606D50168C46B8A68DF
:101CE00022F4005222438A605A060FD50168046C20
:101CF0004A6822F480122243B4F5801F4A6005D15D
:101D00004A68446C22F4C00222434A601B0606D58E
:101D10000268816C536823F400230B43536010BDA9
:101D20002DE9F843DDF8209004460F461646984604
:101D30002268D36937EA03030CBF01230023B342AF
:101D400001D000201EE0B9F1FF3FF2D0FEF7CEFD3A
:101D5000A0EB0800484525D8B9F1000F22D0206833
:101D600003685A07E4D5C56915F008050CD00825A5
:101D700005622046FFF77DFE0023C4F8845084F8F6
:101D800078300120BDE8F883C3691B05D0D54FF436
:101D9000006303622046FFF76CFE2023C4F8843002
:101DA00084F878500320EDE773B504460026C0F8A8
:101DB0008460FEF79BFD23681B681A0705461BD548
:101DC0006FF07E430093324603464FF400112046E5
:101DD000FFF7A6FF80B1226852E8003F23F080039E
:101DE00042E800310029F6D12023E36703200023D5
:101DF00084F8783002B070BD23681B685B0724D577
:101E00006FF07E43009300222B464FF48001204662
:101E1000FFF786FFC8B1226852E8003F23F49073B1
:101E200042E8003122680029F5D102F1080353E8A5
:101E3000003F23F0010302F1080040E800310029CF
:101E4000F3D12023C4F88030D0E720230020E367BB
:101E5000C4F8803020666066C9E710B5044640B318
:101E6000C36F1BB980F87830FEF786FC2268242304
:101E7000E367136823F001031360636A13B120461C
:101E8000FFF7FAFE2046FFF71DFE012811D0236858
:101E90005A6822F490425A609A6822F02A029A60A4
:101EA0001A6842F0010220461A60BDE81040FFF7B0
:101EB0007BBF012010BD0000EFF305832BB9064B5B
:101EC000186828B901221A6070476FF00500704742
:101ED0004FF0FF30704700BFC007002010B5EFF390
:101EE00005845CB9084B1A68012A0AD1074AD477DD
:101EF00002221A6000F07CFD204610BD6FF0050044
:101F0000FBE74FF0FF30F8E7C007002000ED00E0EE
:101F1000F0B587B0144600220B460592EFF3058218
:101F2000CAB9C0B16CB3A569002D08BF1825691ED8
:101F30003729AC462AD86168C90727D466696EB1CB
:101F4000B208D4E9027E216857B1BEF15B0F02D915
:101F5000246904B1E6B9059807B0F0BD8022F0E726
:101F6000BEF1000FF7D12469002CF4D105ACCDE906
:101F700000C492B200F00DFD01281CBF00230593A0
:101F8000E9E721464FF0180C8022EFE71046E3E71F
:101F9000CDE90147009500F0C4FC0590DBE708B5EA
:101FA000EFF3058222B908B100F080FE002008BDE1
:101FB0006FF00500FBE70000034B0360034B0B6071
:101FC00080231360704700BF640700206405002071
:101FD000034B0360034B0B604FF480731360704737
:101FE000080500200801002000F108034FF0FF322F
:101FF000C0E90223436003610023036070470023AC
:102000000361704743684B609A688A6051609960C9
:102010000368086101330360704730B50C68631CC6
:102020000AD103695A684A6091608B6059600368FD
:1020300008610133036030BD00F1080213465268A5
:102040001568A542FAD9EDE7D0E9011203698A6063
:1020500051605968814208BF5A60002202611A68C3
:10206000013A1A601868704710B5044601F0E2F9A9
:10207000A46B01F0FFF9B4FA84F0400910BD70B50B
:102080001646026C856B044642B906689EB98068A4
:1020900000F040FFA6600135A56370BD6EB94068D1
:1020A00001F030FC6368226C1344A26863609342C1
:1020B00024BF236863600020EDE7C06801F022FCC4
:1020C000226CE36851429B1A2268E36093423EBF50
:1020D000A3685B18E360022EEDD10DB1013DEAE784
:1020E0002846D8E7034610B41A6C08466AB1DC6883
:1020F000996814448C4228BF1968DC6028BFD960F5
:10210000D9685DF8044B01F0FDBB5DF8044B7047E6
:1021100070B5044601F08EF994F8455004F1240698
:102120006DB2002D14DCFF2384F8453001F0A2F9D4
:1021300001F080F994F8445004F110066DB2002DBE
:1021400012DCFF2384F84430BDE8704001F092B9FE
:10215000636A002BE7D0304600F03EFE08B100F085
:10216000C3FE013D6DB2DCE72369002BE9D03046A8
:1021700000F032FE08B100F0B7FE013D6DB2DEE7BF
:1021800038B50D46044640B94FF0500383F311882B
:10219000BFF36F8FBFF34F8FFEE701F04BF9D4E928
:1021A0000F31226862604B43D0185B1A1A44A0605A
:1021B000FF230020A063E26084F8443084F84530B7
:1021C000A5B9236973B104F1100000F005FE48B110
:1021D0004FF0E0234FF08052C3F8042DBFF34F8F30
:1021E000BFF36F8F01F046F9012038BD04F11000F4
:1021F000FFF7FAFE04F12400FFF7F6FEF2E737B529
:102200000D461C4640B94FF0500383F31188BFF3CD
:102210006F8FBFF34F8FFEE743B94FF0500383F347
:102220001188BFF36F8FBFF34F8FFEE74AB191B9AB
:102230004FF0500383F31188BFF36F8FBFF34F8FBD
:10224000FEE741B14FF0500383F31188BFF36F8F66
:10225000BFF34F8FFEE750230193019B502B08D013
:102260004FF0500383F31188BFF36F8FBFF34F8F8D
:10227000FEE70121002D08BF2246C4E90F0584F8BE
:10228000461022602046019BFFF77AFF9DF8183028
:1022900084F84C30204603B030BD2DE9FF410F4695
:1022A00001921E46044640B94FF0500383F3118853
:1022B000BFF36F8FBFF34F8FFEE751B9036C43B18C
:1022C0004FF0500383F31188BFF36F8FBFF34F8F2D
:1022D000FEE7022E0BD1E36B012B08D04FF0500329
:1022E00083F31188BFF36F8FBFF34F8FFEE700F0CA
:1022F00001FE054630B300254FF0000801F09AF8C2
:10230000A26BE36B9A4201D3022E27D132463946A3
:102310002046FFF7B4FE636A1BB104F1240000F00D
:102320005BFD48B14FF0E0234FF08052C3F8042D1D
:10233000BFF34F8FBFF36F8F01F09CF8012004B003
:10234000BDE8F081019B002BD6D04FF0500383F302
:102350001188BFF36F8FBFF34F8FFEE7019B1BB94F
:1023600001F088F80020EAE715B902A800F074FD32
:1023700001F080F800F082FB01F05CF894F8443042
:10238000FF2B08BF84F8448094F84530FF2B08BF2A
:1023900084F8458001F06EF801A902A800F068FDFC
:1023A00038BB01F047F8A26BE36B9A420ED101F003
:1023B00061F8019904F1100000F0D6FC2046FFF707
:1023C000A7FE00F0FFFB48B1012597E701F052F8A6
:1023D0002046FFF79DFE00F0F5FBF5E74FF0E02308
:1023E0004FF08052C3F8042DBFF34F8FBFF36F8FB0
:1023F000EAE72046FFF78CFE00F0E4FBB2E72DE9A8
:10240000F843894617461E46044640B94FF050032C
:1024100083F31188BFF36F8FBFF34F8FFEE751B97E
:10242000036C43B14FF0500383F31188BFF36F8FF8
:10243000BFF34F8FFEE7022E0BD1E36B012B08D0C9
:102440004FF0500383F31188BFF36F8FBFF34F8FAB
:10245000FEE701F001F9EFF311884FF0500383F329
:102460001188BFF36F8FBFF34F8FA26BE36B9A425C
:1024700001D3022E1ED194F84550A36B6DB23246A3
:1024800049462046FFF7FBFD6B1C0ED1636A3BB14A
:1024900004F1240000F0A0FC10B10FB101233B6057
:1024A000012088F31188BDE8F88301356DB284F806
:1024B0004550F5E70020F4E72DE9FF410E46019273
:1024C000044640B94FF0500383F31188BFF36F8F78
:1024D000BFF34F8FFEE751B9036C43B14FF0500388
:1024E00083F31188BFF36F8FBFF34F8FFEE700F0C8
:1024F00001FD054618B300254FF0000800F09AFFD3
:10250000A76B47B331462046013FFFF7EBFDA763BA
:10251000236973B104F1100000F05EFC48B14FF084
:10252000E0234FF08052C3F8042DBFF34F8FBFF369
:102530006F8F00F09FFF012004B0BDE8F081019B88
:10254000002BD9D04FF0500383F31188BFF36F8F66
:10255000BFF34F8FFEE7019B1BB900F08BFF0020FC
:10256000EAE715B902A800F077FC00F083FF00F05D
:1025700085FA00F05FFF94F84430FF2B08BF84F821
:10258000448094F84530FF2B08BF84F8458000F064
:1025900071FF01A902A800F06BFC00BB2046FFF709
:1025A00063FDB0B1019904F1240000F0DDFB204689
:1025B000FFF7AEFD00F006FB48B94FF0E0234FF007
:1025C0008052C3F8042DBFF34F8FBFF36F8F0125E7
:1025D00094E72046FFF79CFD00F0F4FAF7E7204669
:1025E000FFF796FD00F0EEFA2046FFF73DFD0028CC
:1025F000EDD0B4E730B5074A002352F8335002EB70
:10260000C3041DB942F83310606030BD0133082B9C
:10261000F3D1FAE7C407002070B504460D4616460C
:1026200000F008FF94F84430FF2B04BF002384F827
:10263000443094F84530FF2B04BF002384F8453024
:1026400000F018FFA36B2BB93246294604F1240091
:1026500000F0A4FB2046BDE87040FFF759BD000024
:102660002DE9F041044600F0E5FE304B304E1A688B
:10267000304F01321A603568002D4BD134601B6831
:10268000012B1FD1B84640460135FFF7ADFC382D70
:1026900008F11408F7D1DFF8C480274D4046FFF752
:1026A000A3FC2846FFF7A0FC2448FFF79DFC244824
:1026B000FFF79AFC2348FFF797FC234BC3F80080F1
:1026C000224B1D60224A136801331360214A636460
:1026D0001168E36A14208B4200FB037004F10401CB
:1026E00088BF1360FFF78EFC00F0C4FE1A4B1B6816
:1026F00073B13368DA6AE36A9A4209D24FF0E02391
:102700004FF08052C3F8042DBFF34F8FBFF36F8F8C
:10271000BDE8F081104B1A68E36A002AD2D1326812
:10272000D26A9A4298BF3460CCE700BF28080020E4
:10273000FC0C00209C080020740800205808002091
:10274000440800202C080020700800206C0800209D
:102750000C080020200800201C0800208808002009
:10276000F8B5154B154D1C680646286804300F4611
:10277000FFF76AFC731C07D137B129681048BDE820
:10278000F8400431FFF73EBC2B68A4195C6007D306
:102790000C4B18682968BDE8F8400431FFF73DBCD0
:1027A000094B186829680431FFF737FC074B1A6892
:1027B000A24288BF1C60F8BD24080020FC0C002049
:1027C0002C0800206C080020700800200808002059
:1027D000064A13681968064B19B94FF0FF321A60A0
:1027E00070471268D268D2685268F8E77008002013
:1027F0000808002010B590F8593004463BB9006B2A
:1028000001F016F82046BDE8104001F011B8012B88
:10281000F9D0022B08D04FF0500383F31188BFF397
:102820006F8FBFF34F8FFEE710BD000080B5134CD4
:10283000134F144D236873B9134B1B68012BF8D940
:102840004FF0E0234FF08052C3F8042DBFF34F8FB9
:10285000BFF36F8FEDE700F0EDFDFB68DE68301D24
:10286000FFF7F2FB2B68013B2B602368013B2360E1
:1028700000F000FE3046FFF7BDFFDBE74008002018
:1028800044080020280800209C0800202DE9F0477B
:10289000DDE909949600324607460D46206BA521D6
:1028A000984601F003F8236B043E1E4426F0070609
:1028B000A5B36B1E04F133020F3513F8011F02F8A4
:1028C000011F09B1AB42F8D1002384F84330089DC1
:1028D000372D28BF37254FF0000AE562E564201D3B
:1028E000C4F850A0FFF78BFBC5F1380504F11800C0
:1028F000FFF785FBC4F854A02461A561646284F8E5
:1029000058A042463946304600F06CFD2060B9F1CF
:10291000000F01D0C9F80040BDE8F08784F83450BA
:10292000D5E770B586B0DDE90B5445B94FF05003DB
:1029300083F31188BFF36F8FBFF34F8FFEE744B966
:102940004FF0500383F31188BFF36F8FBFF34F8FA6
:10295000FEE75C260596059E5C2E08D04FF05003DE
:1029600083F31188BFF36F8FBFF34F8FFEE72563AB
:10297000022584F8595004AD01950A9D02940095F2
:10298000059EFFF783FF2046FFF76AFE049806B016
:1029900070BD2DE9F043074685B090008846164685
:1029A000994600F0ADFE054620B94FF0FF3005B066
:1029B000BDE8F0835C2000F0A3FE044698B100233C
:1029C00080F859300D9B056301930C9B0290009396
:1029D00032464B4641463846FFF758FF2046FFF740
:1029E0003FFE0120E3E7284600F022FFDDE700007C
:1029F00010B588B0002407AA06A905A8CDE90544AA
:102A0000FFF7DAFA059B0293069B079A16491748C7
:102A1000CDE900432346FFF784FF18B300F00EFB17
:102A2000012814D14FF0500383F31188BFF36F8F47
:102A3000BFF34F8F0E4B4FF0FF321A600D4B1860F3
:102A40000D4B1C6008B0BDE8104000F083BD0130A4
:102A500008D14FF0500383F31188BFF36F8FBFF39A
:102A60004F8FFEE708B010BDB03900082D280008D0
:102A7000080800201C08002024080020024A1368CF
:102A800001331360704700BF04080020014B186831
:102A9000704700BF240800203F4B1B682DE9F74F0B
:102AA000002B72D13D4B1C6801341C60BCB93C4BFF
:102AB0001A68126842B14FF0500383F31188BFF3D4
:102AC0006F8FBFF34F8FFEE7364A196810681860A2
:102AD0001160354A136801331360FFF779FE334DF7
:102AE000334E2B68334F9C424FF0000B12D23A68A2
:102AF000D26A14214A43B258022A2F4A126828BFC8
:102B00004FF0010B002A18BF4FF0010B584603B0DD
:102B1000BDE8F08FDFF88890DFF8A4A0D9F8002096
:102B200012681AB94FF0FF322A60E0E7D9F80020A6
:102B3000D268D2F80C80D8F804108C4201D22960F7
:102B4000D5E708F1040318460193FFF77DFAD8F89A
:102B5000281019B108F11800FFF776FAD8F82C0000
:102B6000DAF800101423884288BFCAF800000199DF
:102B700003FB0060FFF746FA3868D8F82C10C26AE9
:102B8000914228BF4FF0010BC8E70C4A136801338C
:102B900013604FF0000BB9E7040800202408002060
:102BA000700800206C080020100800200808002091
:102BB0009C080020FC0C00201408002018080020AD
:102BC000200800202DE9F041304C236843B94FF034
:102BD000500383F31188BFF36F8FBFF34F8FFEE76E
:102BE00000F028FC2368013B236024682CB10024FA
:102BF00000F040FC2046BDE8F081254B1B68002B0F
:102C0000F5D0244D244EDFF8A0801DE0EB68DC6891
:102C1000271D04F11800FFF717FA3846FFF714FADA
:102C2000E36A32681420934200FB0380394688BF70
:102C30003360FFF7E7F9194BE26A1B68DB6A9A42D7
:102C400002D3174B01221A602B68002BDED10CB186
:102C5000FFF7BEFD134D2C6844B1114E0127FFF75D
:102C60001BFF00B13760013CF9D12C600C4B1B6895
:102C7000002BBCD04FF0E0234FF08052C3F8042D5E
:102C8000BFF34F8FBFF36F8F0124B1E7040800201B
:102C9000280800205808002020080020FC0C0020F4
:102CA00014080020180800209C08002008B550B91E
:102CB0004FF0E0234FF08052C3F8042DBFF34F8F45
:102CC000BFF36F8F08BD0A4B196841B14FF0500335
:102CD00083F31188BFF36F8FBFF34F8FFEE7FFF7CA
:102CE000CDFEFFF73DFDFFF76DFF0028E0D0E9E7DF
:102CF00004080020174B1A68174B70B512B1012257
:102D00001A6070BD154D1A602A681549142606FB15
:102D100002F3C818CC588CB1446808336468446026
:102D20000B449C4204BF63684360142303FB0211FD
:102D30004B68D9680B4B19602A60E2E742B94FF043
:102D4000500383F31188BFF36F8FBFF34F8FFEE7FC
:102D5000013ADCE7040800201408002020080020C5
:102D60009C080020FC0C002010B50C4640B94FF028
:102D7000500383F31188BFF36F8FBFF34F8FFEE7CC
:102D8000054B19681831FFF748F920460121BDE8C5
:102D90001040FFF7E5BC00BFFC0C002038B50D4625
:102DA000144640B94FF0500383F31188BFF36F8F7F
:102DB000BFF34F8FFEE7074B19681831FFF722F971
:102DC000002C21460CBF28464FF0FF30BDE83840AC
:102DD000FFF7C6BCFC0C002038B5C368DC6844B9FA
:102DE0004FF0500383F31188BFF36F8FBFF34F8F02
:102DF000FEE704F118052846FFF726F9104B1B687B
:102E0000DBB9251D2846FFF71FF90E4AE36A116852
:102E10008B4288BF13600C4A1420294600FB032014
:102E2000FFF7F0F8094BE26A1B68DB6A9A4283BF3E
:102E3000074B01201860002038BD06482946EFE7FF
:102E400004080020200800209C080020FC0C002022
:102E50001408002058080020034B1B680360034B34
:102E60001B684360704700BF100800202408002042
:102E700070B50C46054640B94FF0500383F31188F6
:102E8000BFF36F8FBFF34F8FFEE741B94FF0500391
:102E900083F31188BFF36F8FBFF34F8FFEE700F00E
:102EA000C9FA0F4B196823685A1C10D00D482E68B8
:102EB00000686A68864201D08A420FD9881A834224
:102EC0000AD95B1A134423602846FFF7C5FF002484
:102ED00000F0D0FA204670BD002323600124F7E7FC
:102EE0002408002010080020014B01221A607047BE
:102EF00014080020054B1B6833B1054B1868B0FA65
:102F000080F0400940007047012070471C080020F5
:102F10000408002038B508B9002038BD1B4B1C68D8
:102F2000844208D04FF0500383F31188BFF36F8FB2
:102F3000BFF34F8FFEE7236D43B94FF0500383F388
:102F40001188BFF36F8FBFF34F8FFEE7E16AE26C2A
:102F5000013B91422365DFD0002BDDD1251D2846A2
:102F6000FFF772F8E36CE362C3F13802A261084A2A
:102F700011688B4288BF1360064A142000FB0320AF
:102F80002946FFF73FF80120C7E700BFFC0C0020EF
:102F9000200800209C080020914208B54160006193
:102FA0000AD8D21A83699A420DD2084B011D1868BB
:102FB000FFF733F8002008BD9A4201D2994202D2AD
:102FC000034B011DF3E70120F5E700BFFC0D0020D6
:102FD000000E0020F7B5114C00F02CFA2568BDB9A1
:102FE0000F4F104E3846FEF7FFFF3046FEF7FCFF4E
:102FF0000D4B0E4A1F600E4B10211E600A200D4B18
:103000000095FFF7FCF8206010B10B49FFF7F2FACA
:1030100003B0BDE8F04000F02DBA00BFF80D00206D
:10302000180E0020040E0020000E0020500D00207D
:10303000FC0D0020000D0020B539000810B588B047
:10304000FFF7C8FF124B1B68B3B1002407AA06A9FB
:1030500005A8CDE90544FEF7BBFF059B0293069B3F
:10306000019302230093079A0A490B482346FFF76E
:1030700058FC0A4B186040B94FF0500383F3118895
:10308000BFF36F8FBFF34F8FFEE7012008B010BD75
:10309000F80D0020BA3900089D310008F40D002019
:1030A0007FB5164604461A4640B94FF0500383F3E5
:1030B0001188BFF36F8FBFF34F8FFEE70D4D286868
:1030C00080B10529CDE9001602940DDCFFF712FF4F
:1030D0000023022808BF089A286818BF1A466946C4
:1030E000FFF7DBF804B070BD00236946FFF787F9EE
:1030F000F8E700BFF80D00202DE9F347DFF89880CE
:103100000646FFF7C3FCD8F800308342054609D9CC
:103110001F4F3B681A686AB91E4A1168396013600C
:10312000012300E0002328463360C8F8005002B0B5
:10313000BDE8F087DB68DC68D3F8009004F1040A8E
:103140005046FEF781FF236A2046984794F82830BE
:103150005B07DED5A3694B44994506D238686360A6
:1031600024615146FEF759FFD3E7002300934A46F6
:1031700019462046FFF794FF0028CAD14FF05003AC
:1031800083F31188BFF36F8FBFF34F8FFEE700BF4C
:10319000000E0020FC0D0020F00D00202DE9F04372
:1031A0006E4D6F4E89B02B68D3F80080B8F1000FD8
:1031B00035D0DB68D3F800800024FFF75FFC04A85B
:1031C000FFF79AFF049B8146002B69D1002C4CD15C
:1031D000404550D3FFF7F6FC2B68DB68DF68381DED
:1031E000FEF732FF97F8283058071AD5B9694346D9
:1031F0004A4641443846FFF7CFFEB0B1009423461B
:10320000424621463846FFF74BFF70B94FF0500356
:1032100083F31188BFF36F8FBFF34F8FFEE7012455
:10322000CBE723F0010387F828303B6A38469847FC
:103230003068002204A9FFF73FF90028B3D0049BAF
:103240000698002B2FDB069C6369002B32D103A864
:10325000FFF752FF049B0246092BE9D8DFE803F091
:103260002E2E2E575E762E2E575E3E4B1B681C6808
:10327000B4FA84F4640930682246A8EB0901FFF728
:10328000CBF9FFF79FFC0028D2D14FF0E0234FF09D
:103290008052C3F8042DBFF34F8FBFF36F8FC7E782
:1032A000FFF790FCC4E7059B07999847049B002B08
:1032B000BEDBC8E7201DFEF7C7FEC8E794F828303C
:1032C000A16943F0010384F82830059B2046194486
:1032D000FFF762FE0028ABD0236A2046984794F897
:1032E00028305907A4D5A269059900230A44009300
:1032F00019462046FFF7D4FE002899D14FF050031D
:1033000083F31188BFF36F8FBFF34F8FFEE794F8FD
:10331000283023F0010384F8283089E794F8283016
:1033200043F0010384F828300599A16141B94FF0B9
:10333000500383F31188BFF36F8FBFF34F8FFEE706
:10334000034601442046FFF727FE71E794F8283032
:103350009A07DED4204600F06BFA69E7000E0020E1
:10336000F80D0020FC0D002008480068006880F37C
:1033700008884FF0000080F3148862B661B6BFF38E
:103380004F8FBFF36F8F00DF00BF000008ED00E03C
:10339000DFF80C00016841F4700101607047000023
:1033A00088ED00E082B0002301930D4B1B680133D0
:1033B00008D04FF0500383F31188BFF36F8FBFF332
:1033C0004F8FFEE74FF0500383F31188BFF36F8FE9
:1033D000BFF34F8F019B002BFCD002B0704700BFA2
:1033E0000C0000204FF0807340F8043C074B40F87D
:1033F0000C3C21F001016FF0020340F8081C40F87A
:10340000202C40F8243C4438704700BFA533000806
:10341000074B19680868B0E8F04F80F30988BFF3DC
:103420006F8F4FF0000080F311887047AFF300807A
:10343000FC0C00204FF0500383F31188BFF36F8F13
:10344000BFF34F8F0A4A13680133012B13600ED16B
:103450004FF0E023D3F8043DDBB243B14FF050030B
:1034600083F31188BFF36F8FBFF34F8FFEE7704771
:103470000C000020084A136843B94FF0500383F34F
:103480001188BFF36F8FBFF34F8FFEE7013B1360CF
:103490000BB983F3118870470C0000200000000076
:1034A000EFF30980BFF36F8F154B1A681EF0100FF2
:1034B00008BF20ED108A20E9F04F10602DE90900C7
:1034C0004FF0500080F31188BFF34F8FBFF36F8F21
:1034D000FFF710FC4FF0000080F3118809BC196859
:1034E0000868B0E8F04F1EF0100F08BFB0EC108A6B
:1034F00080F30988BFF36F8F704700BFAFF3008080
:10350000FC0C002008B54FF0500383F31188BFF383
:103510006F8FBFF34F8FFFF7BFFA28B14FF0E02353
:103520004FF08052C3F8042D002383F3118808BDA7
:103530004FF0E022002313619361054B4FF47A7141
:103540001B68B3FBF1F3013B536107231361704721
:10355000000000204FF0E02337B5D3F8001D384AB3
:10356000914208D14FF0500383F31188BFF36F8F5E
:10357000BFF34F8FFEE7D3F8002D324B9A4208D1AC
:103580004FF0500383F31188BFF36F8FBFF34F8F5A
:10359000FEE72D4B1A78D2B20192FF221A701B78E7
:1035A0002A4ADBB28DF803309DF8033003F0500354
:1035B0001370274A072313609DF803101368090648
:1035C0000AD4032B11D04FF0500383F31188BFF3BB
:1035D0006F8FBFF34F8FFEE7013B13609DF8033001
:1035E0005B00DBB28DF80330E6E74FF44073136005
:1035F000019B154A4FF0E024DBB21370D4F8203D54
:1036000043F47003C4F8203DD4F8203D43F07043E8
:10361000C4F8203DFFF78CFF0E4B00251D60FFF71F
:10362000B7FED4F8343F43F04043C4F8343FFFF7CB
:103630009BFEFFF75FFBFFF7B5FE284603B030BDEA
:1036400071C20F4170C20F4100E400E0300E002053
:103650002C0E00200C000020EFF305830F2B0ED959
:10366000114A9B5C114A12789A4208D94FF05003D4
:1036700083F31188BFF36F8FBFF34F8FFEE74FF0D7
:10368000E0230B4AD3F80C3D126803F4E063934245
:1036900008D94FF0500383F31188BFF36F8FBFF346
:1036A0004F8FFEE7704700BFF0E300E0300E0020D0
:1036B0002C0E002010B5104B1A461B688342FBD31A
:1036C00054681119884201BF4168104609195160B8
:1036D000446801198B420CD1084909688B4203D018
:1036E00059682144416019680160904218BF106018
:1036F00010BD1946F8E700BF4C0E0020480E002010
:103700002DE9F0410446FFF7B9F94249424D0B68F3
:103710000BBB424A56071FBFD01D20F0070002F620
:10372000B832131A0CBF40F6B833024613443C4E6D
:10373000083B23F00703002070603260C3E90000FB
:10374000981AC2E900300B60364B1860364B18608F
:103750004FF000432B602E68264255D1002C46D0F6
:1037600004F1080360071CBF23F007030833002B94
:103770004AD02D4F3C689C4246D3294A1568686858
:10378000984204D2D5F800C0BCF1000F15D10968E9
:10379000A94239D02968D2F800801160C21A102AD3
:1037A00012D9E81841070BD04FF0500383F311886A
:1037B000BFF36F8FBFF34F8FFEE72A466546DEE704
:1037C00042606B60FFF776FF6A681649A41A1643D9
:1037D000164A08683C6000232B6013686E608442C0
:1037E00003F1010338BF0C60136008F10804FFF710
:1037F000E9F963070AD04FF0500383F31188BFF350
:103800006F8FBFF34F8FFEE70024F0E72046BDE83F
:10381000F08100BF480E0020340E0020540E00201E
:103820004C0E0020400E0020440E00203C0E0020D4
:1038300010B5044690B31A4A50F8043C126813427B
:1038400008D14FF0500383F31188BFF36F8FBFF39C
:103850004F8FFEE750F8081C41B14FF0500383F33F
:103860001188BFF36F8FBFF34F8FFEE723EA020388
:1038700040F8043CFFF702F90A4A54F8043C116886
:10388000A4F108000B441360FFF714FF064A136805
:10389000BDE8104001331360FFF794B910BD00BFBD
:1038A000340E0020440E0020380E0020024403464F
:1038B000934200D1704703F8011BF9E770B50D4D35
:1038C0000D4C641BA4100026A64209D10B4D0C4CD4
:1038D00000F026F8641BA4100026A64205D170BD96
:1038E00055F8043B98470136EEE755F8043B9847F6
:1038F0000136F2E7CC390008CC390008CC39000891
:10390000D03900080A44914200F1FF3300D17047DA
:1039100010B511F8014B03F8014F9142F9D110BDD8
:10392000F8B500BFF8BC08BC9E467047F8B500BFAC
:08393000F8BC08BC9E4670477C
:1039380064656661756C745461736B00383900088E
:10394800000000000000000000000000000000006F
:103958000002000018000000000000000000000045
:10396800A0860100400D0300801A060000350C00F7
:1039780040420F0080841E0000093D0000127A00BA
:103988000024F40000366E010048E801006CDC02F7
:103998000000000001020304000000000000000015
:1039A800010203040607080949444C4500546D7296
:0C39B8005100546D722053766300000033
:0839C4003CC8FF7F0100000078
:0439CC00B501000839
:0439D0009101000859
:1039D40000093D000100000010000000AAAAAAAAE4
:0400000508000815D2
:00000001FF
